:020000040800F2
:1000000098050020F1010008CB340008E32800081F
:10001000C93400089D09000851470008000000008D
:10002000000000000000000000000000413A00084D
:100030009F09000800000000CD340008433A000882
:100040000B0200080B0200080B0200080B0200085C
:100050000B0200080B0200080B0200080B0200084C
:100060000B0200080B0200080B0200080B0200083C
:100070000B0200080B0200080B0200080B0200082C
:100080000B020008000000000B0200080B02000831
:100090000B0200080B0200080B0200080B0200080C
:1000A0000B0200080B0200080B0200080B020008FC
:1000B0000B0200080B0200080B0200080B020008EC
:1000C0000B0200080B0200080B0200080B020008DC
:1000D0000B020008454700080B0200080B0200084D
:1000E0000B0200080B0200080B0200080B020008BC
:1000F0000B0200080B0200080B02000800000000C1
:10010000000000000B020008000000000B020008C5
:100110000B020008000000000B0200080B020008A0
:100120000B0200080B0200080B0200080B0200087B
:100130000B02000800000000000000000B02000895
:100140000B0200080B020008000000000000000085
:10015000000000000000000000000000000000009F
:100160000000000000000000000000000B0200087A
:100170000B0200080000000000000000000000006A
:10018000000000000B02000800000000000000005A
:10019000000000000000000000000000000000005F
:1001A00000000000000000000B0200080B02000825
:1001B0000B0200080B0200080B0200080000000000
:1001C000000000000B02000800000000000000001A
:1001D0000B0200080B020008DFF810D000F05EFAF6
:1001E0000048004795500008AFF3008098050020B4
:1001F0000648804706480047FEE7FEE7FEE7FEE7C1
:10020000FEE7FEE7FEE7FEE7FEE7FEE7C53A000889
:10021000D90100082DE9F05F0546002092469B4673
:1002200088460646814640241BE02846414647460C
:10023000224600F06AF853465A46C01A914110D33C
:1002400011461846224600F051F82D1A67EB0108B6
:100250004F4622460120002100F048F817EB000924
:100260004E41201EA4F10104DFDC484631462A46F7
:100270004346BDE8F09FD2B201E000F8012B491ED1
:10028000FBD270470022F6E710B513460A46044633
:100290001946FFF7F0FF204610BD00F0004230F095
:1002A00000400AD0C10D01F56071C0F3160042EAAA
:1002B0000151C208400711437047002001467047B2
:1002C00030B50B46014600202022012409E021FA26
:1002D00002F59D4205D303FA02F5491B04FA02F523
:1002E0002844151EA2F10102F1DC30BD202A04DBF6
:1002F000203A00FA02F1002070479140C2F1200339
:1003000020FA03F3194390407047202A04DB203A77
:1003100021FA02F00021704721FA02F3D040C2F125
:10032000200291400843194670472DE9FE4F804650
:1003300081EA0300C00F0C46009021F0004123F039
:100340000045B8EB0200A94105D24046214690463F
:100350001C460B46024623F00040104347D0270DB1
:10036000C7F30A00C3F30A510290401A01904028D3
:100370006BDAC3F3130040F4801B0098924620B15F
:100380000023D2EB030A63EB0B0B01985946C0F133
:1003900040025046FFF7AAFF06460D465046594612
:1003A000019A00F08DF910EB08006141002487EA02
:1003B000115284EAE7731A4340D0009A62B3019A5B
:1003C000012A4FEA075215DC001B61EB02014FF0D6
:1003D000004202EA0752CDE90042001C41F58011BB
:1003E00032462B4600F08DF903B0BDE8F08F404651
:1003F0002146F9E7001B61EB0201001C41F5801367
:1004000000185B412018A2F5001747EB030140EAF2
:10041000D570B6196D4111E06D084FEA360645EA10
:10042000C0754FEA0752001B61EB0201001C41F549
:10043000801149084FEA30000019514132462B46DD
:1004400003B0BDE8F04F00F04DB900980122400024
:100450000023D0EB020263EBE073009821464FEAE1
:10046000E074B8EB000061EB0401E9E783F00043BE
:100470005BE781F0004158E72DE9FE4F81EA030474
:1004800004F0004421F0004100944FF0000B23F0F1
:10049000004350EA01045ED052EA03045BD0C3F388
:1004A0000A54C1F30A552C44A4F2F3340194A0FB7E
:1004B0000254C1F3130141F48011C3F3130343F455
:1004C000801301FB024400FB034E840A970A44EAAE
:1004D000815447EA8357A4FB076802958D0A05FB00
:1004E00007854FEA932C04FB0C542705029D4FEA25
:1004F000065847EA1637B5EB08056EEB070C870E72
:10050000920E47EA811742EA8312A7FB0201B6EB7B
:100510000B0164EB00042B0D43EA0C335E1844EB33
:100520001C50DA465146E7FB0201C5F313044FEABB
:100530000B3343EA14534FEA0432019C43EA0603A7
:10054000A4F10C040294009CCDE900B400F0D9F8A9
:1005500003B0BDE8F08F00200146F9E72DE9F04D2A
:1005600081EA030404F0004B21F0004514464FF0EB
:10057000000A23F0004150EA050220D054EA0102AB
:100580001DD0C5F30A570246C5F31303C1F3130088
:10059000C1F30A5640F4801543F48013A7EB060814
:1005A000101BD64608F2FD3873EB050002D308F1A4
:1005B000010801E092185B41B8F1000F03DA002056
:1005C0000146BDE8F08D00204FF4801106468446B8
:1005D0000EE0171B73EB050705D3121B63EB050336
:1005E00006434CEA010C49084FEA300092185B417F
:1005F00050EA0107EDD152EA030012D082EA04006A
:1006000083EA0501084305D0101BAB4106D2012245
:10061000002306E000224FF0004302E06FF00102E9
:1006200053101AEB06004CEB085110EB0A0041EB9B
:100630000B01BDE8F04D00F055B8C1F30A52C1F30B
:10064000130140F2FF3341F480119A4202DA002094
:100650000146704740F233439A42A2F2334202DC31
:100660005242FFF752BEFFF741BE000030B5041EF4
:1006700071F1000404DB4FF00044404264EB0101DF
:10068000141E73F1000405DB1C464FF00043524278
:1006900063EB0403994208BF904230BD064C074DFE
:1006A00006E0E06840F0010394E807009847103442
:1006B000AC42F6D3FFF794FD1063000830630008E6
:1006C000202A06DBCB17203A41FA02F043EAE07316
:1006D00006E041FA02F3D040C2F120029140084303
:1006E0001946704710B5141E73F1000408DA401C57
:1006F00041F1000192185B411A4301D120F0010041
:1007000010BD2DE9F04D92469B4611B1B1FA81F230
:1007100002E0B0FA80F220329046FFF7E7FD04468F
:100720000F4640EA0A0041EA0B0153465A46084385
:1007300013D0114653EA010019D0C8F140025046C7
:10074000FFF7E3FD05460E46504659464246FFF781
:10075000CDFD084305D0012004E020463946BDE820
:10076000F08D0020054346EAE0762C4337430A9893
:100770006305E40AA0EB08000022FD0A44EA47549E
:100780000A3002D500200146E9E701051019694148
:10079000DDE9084500196941BDE8F04DA2E7000018
:1007A0002DE9F041044600270D46006802F034FDB3
:1007B0000646206802F02CFD304359D02068C168FD
:1007C0002C4E890105D5617F012902D1217F0129A4
:1007D0000BD0022D1DD0206802F01EFDB8B120689C
:1007E0008168C1F3400169B111E00125224902E0AD
:1007F0008F422ED27F1C0268D2435206F8D4402189
:100800000160E8E78168314041F010018160012D0D
:1008100011D0206802F0FCFC48B120688168C1F367
:10082000400121B98168314041F020018160022DF1
:1008300008D0032D04D0042500F08AFE064613E0FC
:100840000C25F9E70825F7E700F082FE801B052854
:100850000AD9E06D40F01000E065206E40F0010024
:1008600020660120BDE8F081206880682842EBD135
:100870000020F7E7C0FFFF7F000040A370B50446EB
:10088000006881688268C1F3400112F0010F24D032
:1008900019BB816801F00D01012910D18168104A4E
:1008A0001140891C816021680320086000F050FE1F
:1008B00005460EE000F04CFE401B022809D9E06D11
:1008C00040F01000E065206E40F00100206601203D
:1008D00070BD20688068C007ECD1002070BD0000AA
:1008E000C0FFFF7F70B504460068816811F0010FFA
:1008F00028D18168144A114215D18168D543294015
:10090000491C816000F024FE064616E0816811F063
:10091000010F03D181682940491C816000F018FE55
:10092000801B022809D9E06D40F01000E065206EC0
:1009300040F001002066012070BD20680168C943B5
:10094000C907E3D1002070BD3F00008010B50F48FB
:1009500000F028FC02210D4800F0AAFB0B4800F033
:1009600077FA00EE100ADFED0A0A0B48B8EE400AEB
:1009700020EE200ADFED070A80EE201A80ED051A2E
:10098000BDE81040014800F087BC0000780000205E
:100990003333534000F07F4500000020FEE77047EE
:1009A000002240F6B83306E00021491C89B2994282
:1009B000FBD3521C92B28242F6D3704710B5044664
:1009C00002F00CF8A02001F0CAFF02F03DF820462A
:1009D00001F0C5FF02F038F802F000F8A12001F0A4
:1009E000BEFF02F031F801F093FF044601F0DEFF94
:1009F00002F00FF8204610BD70B50D46044601F018
:100A0000EDFFA02001F0ABFF02F01EF8204601F040
:100A1000A6FF02F019F8284601F0A1FF02F014F831
:100A200001F0F7FFBDE87040022000F091BC704774
:100A30002DE9F84F00270446009790F85800DFF89A
:100A4000DC930D46B846012811D0012684F8586081
:100A5000206802F0E1FB60B1E06D40F02000E0654D
:100A60005FF0010784F858803846BDE8F88F02200F
:100A7000FBE7D5E900210C23206803EA9113184411
:100A8000036B01F01F014FF01F0C0CFA01FCC2F3C5
:100A9000846223EA0C038A4013430363206802F054
:100AA000BBFB8246206802F0B3FB5AEA00003CD14F
:100AB000AA6829682068B2F1004F37D002F0B8FB6D
:100AC0002068416921F00041416120686969C2687C
:100AD000C2F3C102520091402A69042A31D000EBCE
:100AE00082002B68026EDFF838C303F0F84302EA95
:100AF0000C020B431A4342F0004101662268286948
:100B0000A96902EB8000026E22F080720A4302663D
:100B1000297F20682A69012910D0002100EB82007A
:100B2000026E22F000720A4302667DE0002202F0AB
:100B30007FFB2068416941F00041C5E74FF000713B
:100B4000ECE7002102F05EFB400320684FF000015B
:100B500072D002F057FB90FAA0F0B0FA80F128684A
:100B600042036ED090FAA0F0B0FA80F0814204D136
:100B700000221146206802F06AFB0121206802F081
:100B800041FB400320684FF001015DD002F03AFBC9
:100B900090FAA0F0B0FA80F12868420359D090FA98
:100BA000A0F0B0FA80F0814204D100220121206837
:100BB00002F04DFB0221206802F024FB4003206874
:100BC0004FF0020148D002F01DFB90FAA0F0B0FAFD
:100BD00080F12868420344D090FAA0F0B0FA80F087
:100BE000814204D100220221206802F030FB03215F
:100BF000206802F007FB400320684FF0030133D068
:100C000002F000FB90FAA0F0B0FA80F128684203ED
:100C10002FD090FAA0F0B0FA80F0814204D10022E7
:100C20000321206802F013FB2068816811F0010F96
:100C300022D0ACE000E004E002F0E4FAC0F384610A
:100C40008DE7C0F3846091E702F0DCFAC0F38461C1
:100C5000A2E7C0F38460A6E702F0D4FAC0F384618F
:100C6000B7E7C0F38460BBE702F0CCFAC0F384615D
:100C7000CCE7C0F38460D0E72A7B296850F8B03F06
:100C8000C1F3120C23EA0C0302F0180C654A22FA95
:100C90000CF20A4013430360E968494577D128689C
:100CA00041031CD090FAA0F1B1FA81F1491C01F086
:100CB0001F0109294FEA403132D8002912D000BF64
:100CC00090FAA0F1B1FA81F101F1010101F01F01E7
:100CD00006FA01F609D100BFC0F3846109E0C0F350
:100CE0008461E3E7C0F38461EEE790FAA0F1B1FA22
:100CF00081F101F1010101F01F0146EA816102D198
:100D0000C0F3846003E090FAA0F0B0FA80F000F144
:100D1000010000F01F0000EB400041EA005132E00A
:100D200000290ED090FAA0F1B1FA81F101F1010190
:100D300001F01F0106FA01F606D100BFC0F384617D
:100D400006E0C0F38461F1E790FAA0F1B1FA81F115
:100D500001F1010101F01F0146EA816102D1C0F3F6
:100D6000846003E090FAA0F0B0FA80F000F1010096
:100D700000F01F002C4A00EB400002EB005041EA5B
:100D8000000141F00071AA68206802F051FA27487A
:100D90002A6802423FF466AE25488168254B01F07F
:100DA000E0719A4202D0244B9A421BD10B0219D413
:100DB0002268B2F1A04F7FF455AE826841F4000181
:100DC00022F0E0720A4382601C481D490068B0FBB3
:100DD000F1F000EB4000800000E0401E0090002891
:100DE000FBD13FE6174D184BAA4207D1CD0105D4E0
:100DF00022689A42F5D041F0807109E0134DAA4271
:100E0000EFD14A02EDD422689A42EAD041F480013F
:100E1000826822F0E0720A43826023E600007F408D
:100E200000F0FF03FFFF0700000020FE0000088025
:100E300000030050000021C31000C0904C000020AF
:100E4000400D0300000052C700010050000084CB99
:100E50000068006C70470000F8B54FF00005040012
:100E60002E46009502D0E06D10B107E00120F8BDDC
:100E7000204600F0EDF8266684F858602068816806
:100E8000C1F3407119B18168694A114081602068DD
:100E90008168C1F3007179B98168664A114041F0F7
:100EA00080518160644865490068B0FBF1F000E062
:100EB000401E00900028FBD120688168C1F30071BA
:100EC00041B9E16D41F01001E165216E41F0010190
:100ED0002166012502F0A0F9E16DC90600D430B108
:100EE000E06D40F01000E06501252846F8BDE06D9A
:100EF00020F4807040F00200E0652068806810F007
:100F0000010F11D14FF0A04080684D4900F0010061
:100F1000896801F00101084306D14A486168826886
:100F200022F47C120A438260E168E06B627F08432E
:100F3000A16841EA4231084394F8241040EA014094
:100F4000012904D1218D404A02EB41410843E16A65
:100F500029B101F47871226B014342EA0100216852
:100F6000CA683A4B1A400243CA6020680169626B42
:100F700021F0406111430161206802F04DF90646FD
:100F8000206802F045F930432ED1207F94F83810C4
:100F9000800340EA41022068C16844F20203994399
:100FA0001143C16020690028206801690AD041F41A
:100FB00080310161206850F8C01F22696FF30D0174
:100FC000114307E021F480310161206850F8C01F0F
:100FD0006FF30D01016094F8400001280CD02068E7
:100FE000016921F001010161606901282068016B3C
:100FF00021F00F0111D013E0D4E911010843D4E925
:1010000013121143084321680A6940F2FC739A43A2
:10101000104340F001000861E6E7226A521E1143C6
:101020000163E06D20F0020040F00100E0655CE744
:10103000C0FFFF5FC0FFFF7F4C000020400D03009A
:1010400000010050000300500000FEFF0740F0FFC9
:1010500010B586B0044614216846FFF713F911490C
:10106000206888421BD11048C16C41F40051C16412
:10107000C16C01F400510591C16C41F00201C164E1
:10108000C06C694600F0020005904FF400400090EB
:101090000320019000200290044800F06BF906B094
:1010A00010BD000000010050001002400004004884
:1010B0002DE9F041044639480F46816801F01F05CB
:1010C000A16908290FD085B1052D0ED0092D0CD0AE
:1010D000806800F4604060B1E06D40F02000E065A1
:1010E0000120BDE8F081082604E02068C068C00740
:1010F000F1E7042600F02CFA804608E0781C06D0C0
:1011000000F026FAA0EB0800B8420FD877B12068AB
:1011100000683042F2D0E06D40F40070E065206875
:1011200002F07EF8D0B1607F48B117E0E06D40F08A
:101130000400E065002084F858000320D1E720680F
:10114000006800070AD5E06D20F48070E065E06D6E
:10115000C00403D4E06D40F00100E065104A20684F
:101160004FF0A041904201D10B4600E0034683427C
:1011700010D07DB1052D0DD0092D0BD0904200D09F
:101180000146C968082E07D0490401D40C2101602A
:101190000020A6E7C168F5E70821F8E70003005042
:1011A000000100502DE9F04104463848806800F005
:1011B0001F05206802F030F818B102210846BDE88A
:1011C000F08194F8580001280CD0012084F85800D0
:1011D0002046FFF787FB01004FF0000304D084F89E
:1011E0005830EBE70220EAE7E06D40F601629043F9
:1011F00040F48070E065264A20684FF0A046904297
:1012000001D1374600E00746874200D01DB9E76D9F
:1012100027F48017E765E76DFF0404D5276E27F0F4
:101220000607276600E023661C27076084F858300D
:101230002068904201D1334600E00346834215D036
:10124000A5B1052D12D0092D10D0E36D43F4801304
:10125000E365904200D13046C0688001AED5E06DB4
:1012600020F4005040F48050E065A7E7C268920186
:1012700005D5E26D22F4005242F48052E2658268A4
:10128000044B1A40121D826098E7000000030050D2
:1012900000010050C0FFFF7F10B5044690F85800D1
:1012A000012808D0012084F8580003212046FFF7C8
:1012B00077FA10B10BE0022010BD2046FFF7DEFAEE
:1012C00028B9E16D21F4885141F00101E165002167
:1012D00084F8581010BD70B590F825200024012125
:1012E0002346022A07D00422C26380F8251080F822
:1012F0002430012429E00268156825F00E051560E8
:101300000268156825F001051560826C156825F4E2
:101310008075156090F84420056C02F01F0201FAF8
:1013200002F26A60D0E913255560426D32B115684A
:1013300025F480751560D0E91625556080F82510D4
:1013400080F82430816B01B18847204670BD0000D1
:1013500070B5044600F0FCF80546601C02D0044855
:101360004068044400F0F4F8401BA042FAD370BD7A
:10137000400000202DE9FC4FDFF8A0A1002301254B
:101380000AF1040B03244FF00F0C0BF1040EBDE027
:1013900005FA03F632406FD04F68012F05D0022FB7
:1013A00003D0112F01D0122F17D1D0F808905F0071
:1013B00004FA07F829EA08090097D1F80C8008FA1E
:1013C00007F848EA0908C0F808804768B7430E796B
:1013D000C6F300169E403E434660C6684FEA430887
:1013E00004FA08F7BE4301978F6807FA08F73743F6
:1013F000C7604E68022E01D0122E13D1DE0800EB1A
:1014000086060096366A5F07FF0E0CFA07F926EA91
:101410000906D1F8109009FA07F949EA0609009E71
:10142000C6F820900668019FBE430F7907F00307B6
:1014300007FA08F7374307604E68F60065D5384E5F
:10144000376E47F001073766366E23F0030706F064
:1014500001060096334E3E44B146B6689F074FEAF8
:1014600017780CFA08F7BE43B0F1904F05D02E4F15
:10147000B84204D1012717E047E0002714E02B4FC2
:10148000B84201D102270FE0294FB84201D103270A
:101490000AE0284FB84201D1042705E0264FB842A0
:1014A00001D1052700E0062707FA08F73743C9F8F6
:1014B0000870DAF800605746D1F8048096435FEA76
:1014C000C83800D516433E60DBF800605F46D1F8AF
:1014D000048096435FEA883800D516433E60DEF804
:1014E00000607746D1F8048096435FEAC82800D5AB
:1014F00016433E60094F0C373E68D1F8048096438E
:101500005FEA882800D516433E605B1C0A6832FA01
:1015100003F67FF43DAFBDE8FC8F000000040140FE
:10152000001002400000014000040048000800488C
:10153000000C0048001000480014004800690840F2
:1015400000D0012070470AB1816170478162704705
:101550000148806870470000400000200248816810
:1015600042681144816070474000002010B500249B
:10157000032000F077F8002000F008F808B10124FB
:1015800001E000F025F8204610BD000070B50E4EB9
:1015900005460024706898B14FF47A71B1FBF0F001
:1015A0000A490968B1FBF0F000F0E2FE40B9102DE5
:1015B00006D200222946501E00F034F8356000E0C3
:1015C0000124204670BD0000400000204C00002097
:1015D0000B4808B5016E41F001010166016E01F092
:1015E00001010091816D41F080518165806D00F0B5
:1015F000805000900348816841F48041816008BDBB
:101600000010024000700040002809DB00F01F02BB
:10161000012191404009800000F1E020C0F8001154
:1016200070470000F0B40E4B1B680C46C3F3022356
:10163000C3F10705042D00D90425191D072901D27E
:10164000002300E0DB1E012606FA05F1491E2140B9
:1016500099409E40761E16403143F0BC03F09EB880
:101660000CED00E0064900F0070208684FF6FF03A2
:10167000184040EA0220034A104308607047000007
:101680000CED00E00000FA052B492C4B0A683221D2
:101690004A432B4940B1B0F5007F086829D020F4B7
:1016A000C06040F480602CE00868C0F3412002284C
:1016B00004D051F8800F20F4807022E0D1F880002F
:1016C00020F48070C1F88000086820F4C06040F405
:1016D00000700860B2FBF3F0401C00E0401E4A6955
:1016E000520501D50028F9D1486940050AD50320E3
:1016F0007047C0F34120022806D051F8800F40F413
:101700008070086000207047D1F8800040F480703D
:10171000C1F88000086820F4C06040F400700860E0
:10172000B2FBF3F0401C00E0401E4A695205DBD5D5
:101730000028F9D1D8E700004C00002040420F00FB
:10174000007000402DE9F8430446006800269D4DD6
:1017500000035ED5A86D0027C00008D4A86D40F036
:101760008050A865A86D012700F080500090DFF838
:101770005892D9F8001041F48071C9F80010FFF7B1
:10178000E7FE804606E000BFFFF7E2FEA0EB0800A0
:1017900002282BD8D9F80000C005F5D5D5F890005F
:1017A00010F4407014D0216C814211D0D5F8900013
:1017B000D5F8901020F4407041F48031C5F89010B5
:1017C000D5F8901021F48031C5F89010C5F890003C
:1017D000C00711D0FFF7BCFE804641F2883907E010
:1017E000FFF7B6FEA0EB0801494501D903260BE03F
:1017F000D5F890008007F3D5D5F89000216C20F43F
:1018000040700843C5F890001FB1A86D20F08050CB
:10181000A8652078C00707D0D5F88800616820F057
:1018200003000843C5F888002078800707D5D5F85D
:101830008800A16820F00C000843C5F888002078D3
:10184000400707D5D5F88800E16820F0300008434C
:10185000C5F888002078000707D5D5F888002169E9
:1018600020F0C0000843C5F888002078800607D51E
:10187000D5F88800616920F440600843C5F8880005
:101880002078400607D5D5F88800A16920F440509B
:101890000843C5F888002078000607D5D5F88800E9
:1018A000E16920F440400843C5F888002088C0055D
:1018B00007D5D5F88800216A20F440300843C5F8E0
:1018C00088002088800507D5D5F88800616A20F453
:1018D00040200843C5F88800208840050FD5D5F87A
:1018E0008800A16A20F440100843C5F88800A06A67
:1018F000B0F5801F03D1E86840F48010E8602088CC
:1019000000050FD5D5F88800E16A20F440000843AF
:10191000C5F88800E06AB0F5800F03D1E86840F4AC
:101920008010E8602088C0040FD5D5F88800216BAE
:1019300020F040700843C5F88800206BB0F1807F2C
:1019400003D1E86840F48010E86020884FF000611F
:1019500080040ED5D5F88800626B20F040601043FB
:10196000C5F88800606B884203D1E86840F48010B5
:10197000E860208840040ED5D5F88800A26B20F0DE
:1019800040601043C5F88800A06B884203D1E86826
:1019900040F48010E860208800040FD5D5F8880056
:1019A000E16B20F040500843C5F88800E06BB0F1CF
:1019B000805F03D1E86840F48030E8603046BDE8DD
:1019C000F883000000100240007000402DE9F0474D
:1019D0000E4605004FF0000725D0DFF8AC81D8F89F
:1019E000000000F00F00B0420CD2D8F8001021F037
:1019F0000F013143C8F80010D8F8000000F00F00C4
:101A0000B04210D12968614CC80741F2883A5AD0D7
:101A10006868DFF87C91032808D0022820682DD060
:101A2000400500282CDB0120BDE8F08720688001FC
:101A3000F9D5E06800F00302E068C0F30310401C31
:101A4000032A19D0534A00BFB2FBF0F0E268C2F398
:101A500006225043E268C2F34162521C5200B0FBBE
:101A6000F2F0484517D9A06810F0F00F0CD08807A5
:101A700011D5A86840B10EE0474AE5E78003D0E7FA
:101A800000F0B6F8484506D9A06820F0F00040F014
:101A90008000A0608027A068696820F003000843E8
:101AA000A060FFF755FD814606E000BFFFF750FD3F
:101AB000A0EB090151453AD8A068696800F00C0014
:101AC000B0EB810FF2D12868810714D5400703D508
:101AD000A06840F4E060A0602878000705D5A06801
:101AE00020F4605040F4E060A060A068A96820F095
:101AF000F000084304E0802F03D1A06820F0F0003C
:101B0000A060D8F80010404601F00F01B14216D98C
:101B1000016821F00F0131430160FFF719FD07460D
:101B200007E000BFFFF714FDC11B514501D9032099
:101B30007AE7D8F8000000F00F00B042F2D1287820
:101B4000400705D5A068E96820F4E0600843A0607C
:101B50002878000706D5A068296920F4605040EA7B
:101B6000C100A06000F044F8A1680C4AC1F3031161
:101B7000515C01F01F01C84009490860094800682C
:101B8000BDE8F047FFF702BD002002400010024010
:101B900000B4C4040024F40000366E01F8620008AA
:101BA0004C00002040000020054806490068896874
:101BB000054AC1F30221515C01F01F01C840704782
:101BC0004C00002000100240086300080548064948
:101BD00000688968054AC1F3C221515C01F01F0108
:101BE000C84070474C000020001002400863000805
:101BF000184910B58868C0F381021748012A0BD034
:101C00008A68164BC2F38102022A06D08A68C2F3A0
:101C10008102032A03D0002010BD184610BDCA68F7
:101C200002F00304CA68C2F30312521C032C02D050
:101C3000B0FBF2F001E0B3FBF2F0CA68C968C2F38E
:101C400006225043C1F34161491C4900B0FBF1F049
:101C500010BD0000001002400024F40000366E01A8
:101C60002DE9F84304007AD02078FA4DC00747D018
:101C7000A868E96800F00C0001F003010C2802D00C
:101C8000082817D001E0032914D06068B0F5803F20
:101C900017D0B0F5A02F286817D020F48030286026
:101CA000286820F4802028606068E0B1FFF750FCCD
:101CB000064614E02868800322D560680028D2D048
:101CC0001EE0286840F48030EDE740F48020286072
:101CD000F7E700BFFFF73CFC801B642870D828683A
:101CE0008003F7D50CE0FFF733FC064605E000BFA4
:101CF000FFF72EFC801B6428F0D828688003F7D4F7
:101D0000207880074CD5A868E96800F00C0001F045
:101D100003010C2802D004280DD001E002290AD0CA
:101D2000E068002828682BD040F480702860FFF716
:101D30000FFC064619E02868400502D5E068002837
:101D400091D06868217C20F0FE4040EA0160686024
:101D5000C1480068FFF71AFC002800D120E076E1B6
:101D6000FFF7F6FB801B0228B8D828684005F7D596
:101D70006868217C20F0FE4040EA016068600FE066
:101D800020F480702860FFF7E3FB064605E000BF03
:101D9000FFF7DEFB801B0228A0D828684005F7D497
:101DA0002078000729D560690028D5F8940013D061
:101DB00040F00100C5F89400FFF7CAFB064606E0B4
:101DC00090E000BFFFF7C4FB801B022886D8D5F83F
:101DD00094008007F6D510E020F00100C5F89400CB
:101DE000FFF7B6FB064604E0FFF7B2FB801B0228B4
:101DF00078D8D5F894008007F6D42078400761D5CC
:101E0000A86D0026C00008D4A86D40F08050A865D9
:101E1000A86D012600F08050009090480168C90527
:101E200011D40168804641F480710160FFF790FB96
:101E3000074604E0FFF78CFBC01B022852D8D8F8F5
:101E40000000C005F6D5A068012815D00528D5F8F2
:101E5000900016D020F00100C5F89000D5F8900051
:101E600020F00400C5F89000A06841F28838B8B1AD
:101E7000FFF76EFB07460EE0D5F8900040F001003A
:101E8000F0E740F00400C5F89000F5E7FFF760FBCD
:101E9000C11B414526D8D5F890008007F6D50CE047
:101EA000FFF756FB074604E0FFF752FBC11B414515
:101EB00018D8D5F890008007F6D41EB1A86D20F090
:101EC0008050A8652078800629D5A0690028D5F81B
:101ED000980013D040F00100C5F89800FFF738FBD8
:101EE000064606E077E000BFFFF732FB801B0228C2
:101EF00077D8D5F898008007F6D510E020F00100DB
:101F0000C5F89800FFF724FB064604E0FFF720FB26
:101F1000801B022865D8D5F898008007F6D4E069C0
:101F2000F0B3A968C1F38101032961D002282868B0
:101F300020F0807028600BD0E86820F00300E86093
:101F4000E86847490840E860FFF702FB04464BE0B9
:101F5000FFF7FEFA064604E0FFF7FAFA801B0228B4
:101F60003FD828688001F7D4F4E908016FF00F0228
:101F700002EB01110843218A5204490802EB415146
:101F8000A26841EA02210843217D4FF07E424908C0
:101F900002EB41610843217B40EAC160E96800E04F
:101FA00062E0304A11400843E860286840F08070E1
:101FB0002860E86840F08070E860FFF7C9FA0446DE
:101FC00005E000BFFFF7C4FA001B022809D8286803
:101FD0008001F7D548E004E0FFF7BAFA001B0228B9
:101FE00002D90320BDE8F88328688001F4D43BE0DF
:101FF0000128F7D0E868226A00F00301914226D157
:10200000616A00F0F0020901103991421FD1A26A01
:1020100000F4FE41B1EB022F19D194F82C2000F00E
:102020007841B1EBC26F12D1218E00F4C002490891
:102030004905A1F50011914209D194F8341000F03E
:10204000C06049084906A1F1007181420CD001200D
:10205000C8E700000010024040000020007000406F
:10206000FFFFEEFE0C809F010020BBE70F4810B57C
:102070000B4601680E480140080CD870C1F30424D7
:102080005C7001F03F049C70C1F34231197052B989
:1020900001F0A7FBD870587801F0A3FB587098782E
:1020A00001F09FFB9870002010BD00000428004044
:1020B0003FFFFF00144810B500680B464860124807
:1020C00008300068C0F30E0088600F4808380168C7
:1020D0000E480140C1F305401870C1F306245C703E
:1020E00001F07F049C70890DD97052B901F079FB21
:1020F0001870587801F075FB5870987801F071FBF2
:102100009870002010BD0000082800407F7F7F00ED
:1021100070B504004FF001003ED094F8250028B9B6
:10212000002084F82400204600F03CF8022084F8C7
:1021300025001A4ECA20306053203060204601F03E
:1021400065FB10BB154D0C3D2868154908402860FB
:1021500028686168A269084321691143084328601F
:102160002189E06840EA01400C49143908602046A2
:1021700001F072FB48B9D4E90721114362692B6869
:1021800023F060431A4311432960FF213160002886
:1021900002D1012184F8251070BD000024280040E0
:1021A000BFFF8FFB00680549884205D1044850F8FD
:1021B000901F41F40041016070470000002800407A
:1021C000001002402DE9F041044690F824000B462F
:1021D00001281AD0012684F82460022084F8250002
:1021E000B2B19878D97840EA014558781978000258
:1021F00040EA413005431B4FCA2038605320386005
:10220000204601F003FBD8B122E00220BDE8F081B6
:102210005878C10603D500F0EF000A305870D8781E
:1022200001F0E8FA0504587801F0E4FA45EA0025DF
:10223000987801F0DFFA0543187845EA4035DAE787
:1022400009480540074820380560204601F004FB96
:10225000FF21396008B984F82560002184F8241032
:10226000D4E70000242800403FFFFF002DE9F0479D
:10227000054690F8240017460C46012814D04FF06C
:10228000010985F82490022085F82500DFF8A48054
:10229000CA21C8F800105321C8F80010284601F0E0
:1022A000B5FA002618B127E00220BDE8F087214BDF
:1022B0000C3B18684FEA40601FB3002800DBE67053
:1022C000A0782178E27840EA01406178090241EA89
:1022D0008251084318490840164924390860186893
:1022E00020F480201860D4E90301084319680843EA
:1022F0001860284601F0B0FAFF22C8F80020A0B10B
:1023000015E0002800DBE670207801F073FA07047E
:10231000607801F06FFA47EA0027A07801F06AFAC6
:102320000743E07847EA8050D4E785F8259085F8A0
:102330002460BAE7242800407F7F7F0070B50B4DF2
:10234000286860F0A0002860FFF702F904464FF407
:102350007A7606E0FFF7FCF8001BB04201D90320B3
:1023600070BD28688006F5D5002070BD0C2800409F
:1023700010B5401EB0F1807F01D3012010BD4FF099
:10238000E02460610F21601702F008FA0020A061CC
:1023900007202061002010BD90F87C10012918D082
:1023A000012180F87C102421C0F8801050F8601BB7
:1023B0000A680B6823F001030B6022F00051002231
:1023C000426050F8603C196020210162027710469B
:1023D000704702207047704770B5044690F87C0043
:1023E00001281DD0012084F87C002420C4F880003E
:1023F00020680568026822F0010202602068826895
:1024000022F060620A438260204601F0B3FB20683C
:1024100005602020C4F88000002084F87C0070BD96
:10242000022070BD70B5044690F87C0001281DD0D4
:10243000012084F87C002420C4F88000206805680E
:10244000026822F0010202602068826822F0604285
:102450000A438260204601F08DFB20680560202041
:10246000C4F88000002084F87C0070BD022070BD9C
:1024700070477047704700002DE9F041036804463B
:10248000D8691A68996810F00F0F4FF0000569D0ED
:102490005E4E02F490770E4037437DD0C70709D0D7
:1024A000D70507D501271F62D4F8883043F0010310
:1024B000C4F8883083070AD5CB0708D027680223E1
:1024C0003B62D4F8883043F00403C4F888304307F3
:1024D0000AD5CB0708D0276804233B62D4F888309C
:1024E00043F00203C4F8883003070CD502F0200340
:1024F000334308D0266808233362D4F8883043F089
:102500000803C4F88830D4F88830002B3CD080060B
:1025100009D502F0200001F08051084303D0E16E9C
:1025200009B120468847D4F888002168896849069F
:1025300001D400072AD5204601F0ECFB2068816811
:1025400049061ED5816821F040018160A06FC0B1AD
:102550002F498163A06FFEF7BEFE002814D0A06F44
:10256000816B0AE0860617D502F0200601F080573D
:102570003E4311D0E16E24E02046BDE8F04108471B
:102580000AE02046FFF776FFBDE8F0812046FFF71E
:1025900071FFC4F88850F7E7C60209D54E0207D587
:1025A0004FF4801018622046BDE8F041FFF761BF8C
:1025B000060609D502F0800601F400010E4303D09F
:1025C000216F0029D8D1DFE741060DD551060BD583
:1025D0001968204621F0400119602021C4F88010BC
:1025E000256700F07DF9CFE7010206D5510004D53B
:1025F0002046BDE8F041FFF73BBFC001C4D5002A2B
:10260000C2DA2046BDE8F041FFF7E5BE0100001048
:10261000FF3C000810B5040003D0D4F8800010B1CE
:1026200007E0012010BD002084F87C00204600F067
:1026300027F82420C4F880002068016821F00101F7
:102640000160204601F078FC0128EBD0A06A10B1AF
:10265000204601F0C1FA2068416821F490414160B0
:102660002068816821F02A0181602068016841F0BA
:10267000010101602046BDE8104001F011BB0000DF
:1026800010B586B0044614216846FDF7FBFD1749D6
:102690002068884227D11648016E41F480410166C6
:1026A000016E01F480410591C16C41F00101C164EA
:1026B000C06C694600F0010005904FF4C0600090C6
:1026C00002200190002002900390072004904FF018
:1026D0009040FEF74FFE002211462520FEF7A2FF94
:1026E0002520FEF791FF06B010BD00000038014024
:1026F0000010024070B5D0F88430202B6DD1B9B1F4
:10270000B2B190F87C30012B67D0012380F87C3087
:102710008165A0F85C20A0F85E200021C166836876
:102720004FF48056FF24B34207D1036913B11CE074
:10273000012070BD40F2FF131DE07F259BB1B3F176
:10274000805F15D0A0F86010C0F888102223C0F870
:10275000843003689C6844F001049C60436EB3F1CC
:10276000005F0ED027E0036943B9A0F86040EBE7B3
:1027700003691BB13F23A0F86030E5E7A0F8605083
:10278000E2E7B0F86830934215D88268B24201D1CE
:10279000026972B1124AC26680F87C1001680A6848
:1027A00042F480720A600068816841F08051816063
:1027B0000FE00C4AEFE78268B24201D1026952B1E0
:1027C000094AC26680F87C100068016841F4907183
:1027D0000160002070BD054AF3E7022070BD0000D3
:1027E000993E0008993D0008393E0008393D00082F
:1027F000084800680849094B086301F1080002789D
:1028000008791A54401C0871012208310448FFF766
:1028100071BF00004800002000000020640000207C
:102820000C0100202DE9F8430446D0F880001F4633
:1028300016460D46202851D1DDB1D6B194F87C0062
:1028400001284BD0012084F87C004FF00008C4F828
:1028500088802120C4F880001834FEF779FEA6870E
:102860008146E68754F8100C183CB0F5805F03D021
:1028700004E00120BDE8F883206910B12E46002550
:1028800010E000260EE08021204601F028FFB8B9B4
:10289000C6B116F8010B21688862B4F85600401ED4
:1028A000A4F85600B4F856004B464FF000020097CB
:1028B0000028E8D14FF04001204601F010FF30B170
:1028C0000320D7E735F8020BC0F30800E3E7202028
:1028D000C4F8800084F87C800020CBE70220C9E7A0
:1028E0007047FEE700B585B014216846FDF7CAFCC5
:1028F000C0200090012001900290022003906946C0
:102900000248FEF737FD05B000BD00000004004896
:1029100070B50824002501F05BF813E06806050E89
:10292000002001F03DF8142002F0A2FB142002F078
:102930009FFB012001F034F8142002F099FB01F014
:102940003BF80543641EE4B2E8D2002001F028F809
:10295000142002F08DFB01F05DF8284670BD70B5C3
:102960000446082516E001F01BF8142002F080FB55
:1029700004F0800001F042F8142002F079FB6006B8
:10298000040E142002F074FB012001F009F8142059
:1029900002F06EFB6D1EEDB24FF00000E3D200F0CE
:1029A000FFFFBDE87040142002F062BB10B50120AB
:1029B00001F024F8142002F05BFB142002F058FB15
:1029C000012000F0EDFF142002F052FB002000F087
:1029D000E7FFBDE81040142002F04ABB10B501200B
:1029E00001F00CF8142002F043FB012000F0D8FFA6
:1029F000142002F03DFB002001F000F8142002F04A
:102A000037FB002000F0CCFFBDE81040142002F09E
:102A10002FBB10B5002000F0C3FF142002F028FBEC
:102A2000002000F0EBFF142002F022FB012000F058
:102A3000B7FF142002F01CFB012000F0DFFFBDE80F
:102A40001040142002F014BB10B5052400F0C0FFA4
:102A5000142002F00DFB012000F0A2FF142002F070
:102A600007FB05E0641EA4B2142002F001FB6CB168
:102A700000F0A2FF0028F5D100F0CCFF002000F00C
:102A80008FFF142002F0F4FA002010BD00F0C2FF06
:102A9000FFF7BFFF012010BD70B524480168244C2A
:102AA000A26A891A142940D30068A06200F042F893
:102AB000A079C10703D0617881F0010161701C4DDC
:102AC000800705F10A050DD5207880F001002070FF
:102AD000002000F085F8E81C2978017069784170C1
:102AE000A9788170A079410709D5217839B1A178F9
:102AF0000322491CB1FBF2F302FB1311A170000782
:102B000013D52078002810D0A178685C401C685448
:102B100029780020182900D1287069783C2900D133
:102B20006870A9783C2900D1A87070BD48000020C9
:102B30000000002070B5114C01212046FEF7FEFC7C
:102B4000054602212046FEF7F9FC45EA400504212E
:102B50002046FEF7F3FC45EA800401214FF0904047
:102B6000FEF7ECFC064944EAC00040F0F000CA79E8
:102B7000C04320EA02028A71C87170BD0004004897
:102B80000000002000B585B014216846FDF77AFBEF
:102B90004FF6FF70009000200321CDE90201019063
:102BA00069460248FEF7E6FB05B000BD0008004894
:102BB00000B585B014216846FDF764FB4FF6FF7041
:102BC00000900120019003200390002002906946AC
:102BD0000248FEF7CFFB05B000BD0000000800482A
:102BE00070B5002406462146204600F01FFA00F08A
:102BF0005DFA4FF49635304600F02CFA641CAC4276
:102C0000F9D370BD30B587B014216846FDF73AFBA3
:102C10001E48C16C41F00401C164C16C01F00401A3
:102C20000591C16C41F00101C164C16C01F0010169
:102C30000591C16C41F00201C164C06C012500F036
:102C4000020005904FF44870CDE90005002403947C
:102C5000694602940E48FEF78DFB2802039400900B
:102C6000CDE901544FF0904469462046FEF782FBBF
:102C7000FFF79EFFA06940F48070A06104481830FF
:102C8000016841F40871016007B030BD00100240D6
:102C900000040048203AD2B2034B02EB420203EB9D
:102CA000021200F019B8000028510008F0B50E46D5
:102CB0000746002540F23F1407E021463846FFF75B
:102CC000E9FF103C6D1CA4B2761C3278002A01D0BA
:102CD000142DF2D3F0BD00002DE9F04791468A464D
:102CE0000026044600F0A2F9DFF84080012700BF6B
:102CF00000F0DCF95FF0000539F8160007FA05F17D
:102D00000842404601D1408800E0008800F0A2F966
:102D10006D1C102DF0D3641CE4B25146204600F027
:102D200085F9761C182EE3D3BDE8F0873800002023
:102D300010B5FFF767FF002000F030F9084CA080C5
:102D4000A088A0F50241303906D000F049FC0020EF
:102D500000F024F9A08010BD00F0B9FBF7E70000F7
:102D60003800002010B5404886B001683F4C226A08
:102D7000891AC82976D300682062207888B13CA1DE
:102D80003020FFF793FFE17804F10A00002948D0D2
:102D900081780091437802783BA101A801F0EAFC18
:102DA00054E06069FDF779FA41EC100B3DA153EC5A
:102DB000102B01A801F0DEFC01A91820FFF776FF17
:102DC000A069FDF76AFA41EC100B3CA153EC102B03
:102DD00001A801F0CFFC01A94820FFF767FF607848
:102DE00008B13CA100E03CA120481C3001F0C2FC2D
:102DF0001E4A3AA11C3201A801F0BCFC01A97820AE
:102E0000FFF754FF3B4881780091437802783AA15C
:102E100001A801F0AFFC01A9A820FFF747FF3EA1E0
:102E20001DE0A17821B1012906D0022908D011E0C6
:102E3000837842783EA106E08378027843A102E0DD
:102E40004378027848A101A801F094FCE07880F072
:102E50000100E07001A97820FFF728FF49A1D820E0
:102E6000FFF724FF06B010BD48000020000000203E
:102E70002020202020202053657474696E67202054
:102E800020202020000000002020202020202530AD
:102E900032642D253032642D2530326420202020EC
:102EA00020202000202056313A25342E326656202C
:102EB00020202020202020202000000020206B3A0D
:102EC00025332E3166202020202020202020202085
:102ED000200000004F4E00004F46460020204C4589
:102EE000443A25732020202020202020202020204C
:102EF00020000000500000202020543A2530326489
:102F00002D253032642D25303264202020202020D1
:102F10002020202020000000202020202020202011
:102F20002020202020202020202020310000000010
:102F300020202020202020202D253032642D2530F7
:102F4000326420202020202020000000202020208B
:102F50002020253032642D20202D25303264202081
:102F600020202020200000002020202020202530AC
:102F700032642D253032642D202020202020202076
:102F800020000000202020202020202020202020A1
:102F900020202020202020320000000070B51D4994
:102FA0000A6842F400720A600A6842F480720A6099
:102FB000184C103C226842F020022260164A106031
:102FC000086840F02000086000BF00BF00BF206814
:102FD00040F020002060206840F480702060FFF7FF
:102FE000D1FD4FF09041886A40F48070886200BF44
:102FF00000BF00BF0848001F006885B2886940F420
:1030000080708861FFF7D4FD206840F40070206074
:10301000284670BD280400481408004801B5BDF8D2
:1030200000000149488008BD3800002010B50C465A
:103030000146202000F068F82146BDE8104021201C
:1030400000F062B801B5BDF800000149088008BD74
:1030500038000020134A116841F4007111601149D1
:1030600010390B6843F480730B600B6843F0200346
:103070000B600D4B1860106840F02000106000BF1E
:1030800000BF00BF086840F020000860086840F4F6
:103090008070086000BF00BF00BF086840F4007087
:1030A000086070472804004814080048144908685C
:1030B00040F400700860086840F4807008601048B0
:1030C0001038026842F0200202600E4B22221A6081
:1030D0000A6842F020020A6000BF00BF00BF01681A
:1030E00041F020010160016841F48071016000BF7E
:1030F00000BF00BF016841F400710160704700002B
:103100002804004814080048184B10B51A6842F407
:1031100000721A601A6842F480721A60134A103AF8
:10312000146844F020041460114C2060186840F0CA
:103130002000186000BF00BF00BF106840F02000F2
:103140001060106840F4807010602160186840F0D2
:103150002000186000BF00BF00BF106840F02000D2
:103160001060106840F48070106010BD28040048A2
:103170001408004870B50D4D044601224FF47F41FC
:103180002846FEF7E0F9210200222846FEF7DBF987
:10319000074C012204212046FEF7D5F92046BDE860
:1031A000704000220421FEF7CEB90000000800485C
:1031B000000C004810490A681048436AD21AC82A0D
:1031C00019D30968416290ED060ADFED0D0A20EE81
:1031D000200AD0ED050AB4EEE00AF1EE10FA05D2AD
:1031E000417819B1417981F0010100E0002141717C
:1031F000C8B2FFF7BFBF70474800002000000020A2
:103200003333534000EB8100006E00F0F84070470C
:103210008068C0F3C00070478068C0F380007047CA
:10322000C06810F4406F01D0002070470120704743
:10323000042303EAD15310B518444369C1F3045180
:1032400007248C40A3438A401343436110BD00EB25
:103250008100016E21F000411143016670470000BA
:1032600030B589B020216846FDF70CF81948184997
:103270000024C0E900148460C46004250461C0E92E
:103280000545047744770121016280F82440C46237
:10329000046380F83840C46380F84040FDF7DCFDEB
:1032A00008B1FDF7C4FB0C480090062001900720F0
:1032B00002907F200594CDE9030569460548FDF796
:1032C000B7FB002801D0FDF7B2FB09B030BD00000C
:1032D00000010050780000200080F03E2DE9F04110
:1032E00086B014216846FCF7CDFF3648C16C41F02A
:1032F0000401C164C16C01F004010591C16C41F08D
:103300002001C164C16C01F020010591C16C41F044
:103310000101C164C16C01F001010591C16C41F072
:103320000201C164C16C01F002010591C16C41F060
:103330000801C164C06C244E00F008004FF47F44C3
:103340000590012221463046FEF7FDF81F4F00226E
:1033500004213846FEF7F7F8DFF874800122C02117
:103360004046FEF7F0F80125CDE90045002402941F
:10337000694630460394FDF7FDFFCDE900546946E8
:103380004FF090400294FDF7F5FF0720CDE90004CF
:10339000694640460294FDF7EDFF04200090CDE918
:1033A0000154694638460394FDF7E4FFC0200090BD
:1033B000CDE90154694640460394FDF7DBFF06B0B2
:1033C000BDE8F0810010024000080048000C0048F1
:1033D0000004004830B587B014216846FCF752FF5E
:1033E0001E4800241C490594C0E900141F21816077
:1033F00040F2E731C0E9031444610462FEF788FE3D
:1034000008B1FDF714FB23258DF8005059208DF8E5
:10341000010055208DF802000194039401226946B1
:103420000E480494FEF722FF08B1FDF700FB0220CE
:103430008DF8140004208DF815008DF816008DF815
:103440001750012205A90548FEF7BCFE002801D04F
:10345000FDF7EDFA07B030BD00280040E400002081
:10346000184810B5164901604FF41651416000210B
:1034700081600C22C160C0E904128161C1610162F6
:1034800041628162FFF7C6F808B1FDF7D0FA00216A
:103490000C48FEF7C7FF08B1FDF7C9FA002109483B
:1034A000FEF79AFF08B1FDF7C2FA0648FEF774FF6F
:1034B000002803D0BDE81040FDF7B9BA10BD0000E8
:1034C000003801400C010020FEE77047704730B51E
:1034D00001210020FFF718FE4FF47A70FDF760FA23
:1034E00000210120FFF710FE41F290711020FFF73C
:1034F0000BFE4FF41C516020FFF706FE01216120F6
:10350000FFF702FE02214620FFF7FEFD48F2100100
:103510001320FFF7F9FD48F2FE011220FFF7F4FD3A
:103520004FF4A0610220FFF7EFFD41F230010320CC
:10353000FFF7EAFD40F2033421463020FFF7E4FDB7
:1035400021463120FFF7E0FD21463220FFF7DCFD68
:10355000E51E29463320FFF7D7FD03213420FFF76E
:10356000D3FD21463520FFF7CFFD14213620FFF78C
:10357000CBFD21463720FFF7C7FD21463820FFF756
:10358000C3FD21463920FFF7BFFD29463A20FFF74A
:10359000BBFD03213B20FFF7B7FD21463C20FFF791
:1035A000B3FD4FF4A0513D20FFF7AEFD4FF4007185
:1035B0009220FFF7A9FD21469320FFF7A5FD40F6D5
:1035C0000D019020FFF7A0FD41F218010320FFF745
:1035D0009BFDBDE8304040F273110720FFF794BD1A
:1035E00010B543F20801E320FFF78EFD1221E7201A
:1035F000FFF78AFD41F23121EF20FFF785FD002121
:103600000120FFF781FD4FF4E0610220FFF77CFD10
:1036100041F230010320FFF777FD00210420FFF77E
:1036200073FD40F207210820FFF76EFD00210920FD
:10363000FFF76AFD00210A20FFF766FD00210C203C
:10364000FFF762FD00210D20FFF75EFD00210F2036
:10365000FFF75AFD00211020FFF756FD072111202A
:10366000FFF752FD00211220FFF74EFD002113202D
:10367000FFF74AFDC820FDF76BFE41F29061102074
:10368000FFF742FD40F227211120FFF73DFD3220D8
:10369000FDF75EFE1D211220FFF736FD3220FDF7FB
:1036A00057FE4FF400611320FFF72EFD142129204F
:1036B000FFF72AFD0B212B20FFF726FD3220FDF717
:1036C00047FE00212020FFF71FFD00212120FFF7EA
:1036D0001BFD07213020FFF717FD40F20771312055
:1036E000FFF712FD06213220FFF70EFD40F20471B4
:1036F0003520FFF709FD41F604713620FFF704FD80
:1037000004213720FFF700FD00213820FFF7FCFCE3
:1037100040F206713920FFF7F7FC40F201713C20BE
:10372000FFF7F2FC0F213D20FFF7EEFC00215020B7
:10373000FFF7EAFCEF215120FFF7E6FC00215220C1
:10374000FFF7E2FC40F23F115320FFF7DDFC4FF49E
:103750001C516020FFF7D8FC01216120FFF7D4FC49
:1037600000216A20FFF7D0FC00218020FFF7CCFC6D
:1037700000218120FFF7C8FC00218220FFF7C4FC54
:1037800000218320FFF7C0FC00218420FFF7BCFC50
:1037900000218520FFF7B8FC10219020FFF7B4FC32
:1037A00000219220FFF7B0FC03219320FFF7ACFC2F
:1037B0004FF488719520FFF7A7FC00219720FFF7B1
:1037C000A3FC00219820FFF79FFC41F21801032081
:1037D000FFF79AFCBDE8104040F273110720FFF795
:1037E00093BC010901EB810100F00F0000EB4100E7
:1037F000C0B270470022014602E00A39C9B2521C29
:103800000A29FAD2100741EA106070472DE9F04703
:10381000104C814600252068400618D4206840F0EE
:1038200080002060FDF794FE06464FF47A78032767
:1038300008E000BFFDF78CFE801B404502D9032540
:1038400089F825702068400601D4032DF2D128465E
:10385000BDE8F0870C2800402DE9F04106461348EA
:103860000025016821F080010160104C0C342068B3
:103870004FF00307800607D43046FEF75FFD90B196
:1038800086F8257003250EE0206820F020002060D7
:103890003046FEF753FD10B186F8257003252068E9
:1038A00040F0200020602846BDE8F0810C28004050
:1038B00010B5002205490648FEF7FCFBBDE81040A4
:1038C000002204490248FEF7D1BB0000500000204E
:1038D000E40000201000002070B523480168234D4B
:1038E0002A6B891A32293DD30068214C2863284667
:1038F000217800796B2907D16178302904D1A1782A
:103900002E2901D106280BD010B11AA000F022FFF9
:1039100000202871BDE8704014211548FCF7B2BCA6
:1039200020795C28F1D160796E28EED1E078A0F1A1
:103930003101082914D2303800EE100AF2EE040AE0
:1039400010A0B8EEC00A80EE201A85ED061A00F02D
:1039500001FFE0783038C1B20120FDF74DF8D7E71C
:103960000AA0D3E770BD000048000020000000203E
:1039700064000020CAE4C8EBB8F1CABDB4EDCEF3D0
:103980000D0A00006F6B0D0A00000000C7EBCAE4CF
:10399000C8EBD5FDC8B7B5C4CAFDD7D60D0A00001F
:1039A00008B1044801E003481030016841F04001CB
:1039B000016070471804004810B580210348FDF7E6
:1039C000BDFD012800D0002010BD0000000400480B
:1039D00000B585B014216846FCF754FC80200090A7
:1039E00000200190012002900220039069460248C5
:1039F000FDF7C0FC05B000BD0004004808B1044854
:103A000001E003481030016841F080010160704717
:103A10001804004800B585B014216846FCF732FC54
:103A2000802000901120019000200290022003903D
:103A300069460248FDF79EFC05B000BD0004004841
:103A40007047FDF78BBD000030B5A5B03821684642
:103A5000FCF718FC14211FA8FCF714FC44210EA845
:103A6000FCF710FC4FF400752846FDF70DFE092009
:103A70000090E80101900120059002210324CDE986
:103A800007141420CDE90A0109940C9168460D91A0
:103A9000FEF7E6F80F20CDE91F04002421942294BC
:103AA00003211FA82394FDF791FF0548CDE90E04DB
:103AB0004007CDE91D050EA8FDF744FE25B030BD39
:103AC000018008000548016841F470010160034964
:103AD0004FF00060803908607047000088ED00E01A
:103AE0002DE9F043194885B002681949CB6AD21A0A
:103AF000B2F5FA7F26D30068C862164A01F10D00BC
:103B00000378147898469C421CD153784478A34299
:103B100018D192788778BA4214D189468869FCF71F
:103B2000BCFB05460E46D9F81400FCF7B6FBCDE900
:103B3000034741EC100B8DE8600153EC102B06A0FD
:103B400000F008FE05B0BDE8F0830000480000204A
:103B5000000000205000002025342E32662B253333
:103B60002E31662B253032642530326425303264A4
:103B70000D0A00003FB514A1D1E90021CDE90021D3
:103B800013A2D2E90012CDE90212416EB9B1026866
:103B900091689268C1F34261520F1DF80240E5003E
:103BA00002ACA25CB5FBF2F2A0F86A201DF801207D
:103BB000615CD200B2FBF1F1A0F868103FBD0121B9
:103BC000A0F86A10F8E700000101010307010000F6
:103BD000080402040801010190F82810C90706D062
:103BE00001684A68C36A22F400321A434A6090F8B6
:103BF0002810890706D501684A68036B22F48032D1
:103C00001A434A6090F82810490706D501684A68A7
:103C1000436B22F480221A434A6090F82810090767
:103C200006D501684A68836B22F400421A434A6051
:103C300090F82810C90606D501688A68C36B22F47B
:103C400080521A438A6090F82810890606D50168C8
:103C50008A68036C22F400521A438A6090F8281094
:103C6000490611D501684A68436C22F480121A4350
:103C70004A60416CB1F5801F06D101684A68836CC7
:103C800022F4C0021A434A6090F82810090606D5AB
:103C900001684A68C06C22F4002202434A607047FF
:103CA000F8B500260446C0F88860FDF751FC0546CB
:103CB000206800686FF07E47000708D52B46002279
:103CC0004FF400112046009700F009FD60B920680C
:103CD000006840070AD52B4600224FF48001204699
:103CE000009700F0FCFC08B10320F8BD2020C4F8C8
:103CF0008000C4F8840084F87C600020F8BD10B512
:103D0000806A0021A0F85E10A0F85610FEF7B2FB02
:103D100010BD000001680A6822F490720A60016810
:103D20008A68044B1A408A602021C0F88410002160
:103D3000C1667047FEFFFFEF10B5B0F86020D0F805
:103D400084300168222B04D0886940F00800886123
:103D500010BD496A836D11401980816D891C816590
:103D6000B0F85E10491EA0F85E10B0F85E10002991
:103D7000EED101680A6822F490720A6001688A68CC
:103D800022F001028A602021C0F884100021C1665F
:103D9000FEF72EFD10BD000070B50446B0F860605F
:103DA000D0F88400222805D02068816941F00801FC
:103DB000816170BDB4F8685023E02068406AA16D4D
:103DC00030400880A06D801CA065B4F85E00401EE5
:103DD000A4F85E00B4F85E0088B92068016821F498
:103DE0008071016020688168114A11408160202043
:103DF000C4F884000020E0662046FEF7F9FC6D1E42
:103E0000ADB2002DD9D1B4F85E000028D1D0B4F8FD
:103E100068108142CDD92068816821F0805181608D
:103E20000448E0662068016841F02001016070BD2F
:103E3000FEFFFFEF393D000810B5B0F86020D0F864
:103E400084300168222B04D0886940F00800886122
:103E500010BD496A1140826D1170816D491C8165E8
:103E6000B0F85E10491EA0F85E10B0F85E10002990
:103E7000EED101680A6822F490720A6001688A68CB
:103E800022F001028A602021C0F884100021C1665E
:103E9000FEF7AEFC10BD000070B50446B0F86060DF
:103EA000D0F88400222805D02068816941F00801FB
:103EB000816170BDB4F8685023E02068406AA16D4C
:103EC00030400870A06D401CA065B4F85E00401E34
:103ED000A4F85E00B4F85E0088B92068016821F497
:103EE0008071016020688168114A11408160202042
:103EF000C4F884000020E0662046FEF779FC6D1EC1
:103F0000ADB2002DD9D1B4F85E000028D1D0B4F8FC
:103F100068108142CDD92068816821F0805181608C
:103F20000448E0662068016841F02001016070BD2E
:103F3000FEFFFFEF393E00082DE9F05F04460168FF
:103F400080682369E5691843636900272B43184398
:103F5000636EFA4A03430868F94D28401843086025
:103F600020684168E36821F44051194341602168A9
:103F7000A069914201D0236A18438B68F14D2B4010
:103F800003438B602068C16A636A21F00F01194303
:103F9000C162ED4B2068ED4998420DD1D1F88810EF
:103FA00011F0030106D001295AD0022956D0032965
:103FB0003FD157E001253DE0E54B98420BD1D1F8C8
:103FC000881011F00C0147D0042949D0082945D0A8
:103FD0000C292ED146E0DF4B98420BD1D1F8881046
:103FE00011F0300138D010293AD0202936D03029AC
:103FF0001FD137E0D84B98420BD1D1F8881011F07F
:10400000C00129D040292BD0802927D0C02910D128
:1040100028E090420DD1D1F8881011F440611BD0F6
:10402000B1F5806F1CD0B1F5006F17D0B1F5406FBE
:1040300018D01025DFF824A34FF480764FF0000944
:104040004FF4004B90426ED175B1022D29D0042D52
:1040500059D0082D68D176E00025EBE70225E9E785
:104060000425E7E70825E5E7FDF79EFD4DE001287B
:1040700051D0022851D0032851D0042851D005280E
:1040800053D0062853D0072853D0082853D00928E6
:1040900053D00A2853D00B2853D03AE0B1FBF0F0AC
:1040A0006CE0606AA8B1012817D0022817D0032855
:1040B00017D0042817D0052817D0062817D00728AE
:1040C00017D0082817D0092817D00A2817D00B288E
:1040D00017D00120BAFBF0F050E00220FAE70420EC
:1040E000F8E70620F6E70820F4E70A20F2E70C20BC
:1040F000F0E71020EEE72020ECE74020EAE7802000
:10410000E8E73046E6E7FDF773FD0146606A002800
:10411000ADD10120C2E70220C0E70420BEE706209F
:10412000BCE70820BAE761E14AE00A20B6E70C20C4
:10413000B4E71020B2E72020B0E74020AEE78020AF
:10414000ACE73046AAE7606AA8B1012822D002286D
:1041500022D0032822D0042822D0052822D00628E5
:1041600022D0072822D0082822D0092822D00A28C5
:1041700022D00B2822D00120BBFBF0F0002820D059
:104180006168884601EB4101814219D8B0EB083FD4
:1041900016D817E00220EFE70420EDE70620EBE752
:1041A0000820E9E70A20E7E70C20E5E71020E3E72D
:1041B0002020E1E74020DFE78020DDE73046DBE735
:1041C000012739E27DB3022D61D0042D7DD0082D69
:1041D000F6D1606AA8B1012878D0022877D00328E8
:1041E00076D0042875D0052874D0062873D0072807
:1041F00072D0082871D0092870D00A286FD00B28F7
:1042000000D0012632464D46002358460021FCF7D7
:1042100001F8090241EA106102024FEA5800101841
:104220006941424670E0FFE7FDF7BEFC0146606A67
:10423000A8B1012817D0022817D0032817D00428C6
:1042400017D0052817D0062817D0072817D0082818
:1042500017D0092817D00A2817D00B2800D001261C
:1042600032464D468CE00226FAE70426F8E7062699
:10427000F6E70826F4E70A26F2E70C26F0E7102610
:10428000EEE72026ECE74026EAE78026E8E7606ACA
:10429000A8B1012824D0022824D0032824D004283F
:1042A00024D0052824D0062824D0072824D0082884
:1042B00024D0092824D00A2824D00B2800D0012695
:1042C00032464D4600235046A0E726E07AE07BE0E8
:1042D0007CE07DE07EE07FE080E081E082E083E0E2
:1042E0000226EDE70426EBE70626E9E70826E7E7DE
:1042F0000A26E5E70C26E3E71026E1E72026DFE7BC
:104300004026DDE78026DBE70023FBF783FF144A26
:10431000A0F54071914271D952E7FDF769FC014661
:10432000606A50B3012839D0022839D0032839D027
:10433000042839D0052839D0062813E00080004031
:10434000F369FFCFFFF4FF11003801400010024075
:104350000044004000480040004C00400024F400AD
:10436000FFFC0F0024D0072824D0082824D00928D7
:1043700024D00A2824D00B2800D001264D463246EE
:10438000002308461946FBF745FF0902626841EA27
:1043900010610302500818186941B5E70226EDE7DD
:1043A0000426EBE70626E9E70826E7E70A26E5E71D
:1043B0000C26E3E71026E1E72026DFE74026DDE7CD
:1043C0008026DBE702261DE704261BE7062619E701
:1043D000082617E70A2615E70C2613E7102611E72B
:1043E00020260FE740260DE780260BE7E0694FF611
:1043F000EF78584570D1092D8ED200E01AE1DFE840
:1044000005F006093C05800505058300D8E6FDF7A3
:10441000CBFB01E0FDF7DAFB0146606AA8B1012899
:1044200015D0022815D0032815D0042815D005284A
:1044300015D0062815D0072815D0082815D009282A
:1044400015D00A2815D00B2814D0012612E0022618
:1044500010E004260EE006260CE008260AE00A26F4
:1044600008E00C2606E0102604E0202602E04026A4
:1044700000E08026B1FBF6F01AE0606AA8B10128DE
:104480002BD002282BD003282BD004282BD0052892
:104490002BD006282BD007282BD008282BD0092872
:1044A0002BD00A282BD00B2800D00126BAFBF6F01F
:1044B0004100606801EB5001B1FBF0F080B2A0F167
:1044C00010014145A2D84FF6F0710140C0F34200FF
:1044D00001432068C160AFE046E00226E6E704261B
:1044E000E4E70626E2E70826E0E70A26DEE70C26F0
:1044F000DCE71026DAE72026D8E74026D6E7802634
:10450000D4E7FDF775FB87E7606AA8B1012817D0EB
:10451000022817D0032817D0042817D0052817D051
:10452000062817D0072817D0082817D0092817D031
:104530000A2817D00B2800D00126BBFBF6F0B7E7FE
:104540000226FAE70426F8E70626F6E70826F4E747
:104550000A26F2E70C26F0E71026EEE72026ECE725
:104560004026EAE78026E8E7092DBFF4D5AEDFE86C
:1045700005F006093C0583050505860020E6FDF7E4
:1045800013FB01E0FDF722FB0146606AA8B1012898
:1045900015D0022815D0032815D0042815D00528D9
:1045A00015D0062815D0072815D0082815D00928B9
:1045B00015D00A2815D00B2814D0012612E00226A7
:1045C00010E004260EE006260CE008260AE00A2683
:1045D00008E00C2606E0102604E0202602E0402633
:1045E00000E08026B1FBF6F11AE0606AA8B101286C
:1045F0002ED002282ED003282ED004282ED0052815
:104600002ED006282ED007282ED008282ED00928F4
:104610002ED00A282ED00B2800D00126BAFBF6F1A6
:10462000606801EB5001B1FBF0F080B2A0F1100125
:104630004145A3D82168C8600120A4F86A0024F885
:10464000680F3846C4F80490C4F80890BDE8F09F9D
:104650000226E3E70426E1E70626DFE70826DDE792
:104660000A26DBE70C26D9E71026D7E72026D5E770
:104670004026D3E78026D1E7FDF7BAFA84E7606ADF
:10468000A8B1012817D0022817D0032817D0042872
:1046900017D0052817D0062817D0072817D00828C4
:1046A00017D0092817D00A2817D00B2800D00126C8
:1046B000BBFBF6F1B4E70226FAE70426F8E7062684
:1046C000F6E70826F4E70A26F2E70C26F0E71026BC
:1046D000EEE72026ECE74026EAE78026E8E72DE92A
:1046E000F041984617460E460446069D08E0681CB1
:1046F00006D0FCF72DFFA0EB0800A8420BD855B15F
:104700002068C06936EA000019D00020B842EED017
:104710000020BDE8F0812068016821F4D0710160BB
:104720002068816821F0010181602020C4F88000A8
:10473000C4F88400002084F87C000320E9E701200D
:10474000E4E700000148FDF797BE00000C010020DF
:10475000FEE700000FB4054B10B503A9044A029808
:1047600000F0FEF810BC5DF814FB00007D5000085E
:10477000340000200FB4084B10B504A902AA039816
:1047800000F0EEF8044602A9002000F06CFC204680
:1047900010BC5DF814FB0000675000080907090E03
:1047A000002804DB00F1E02080F80014704700F0DE
:1047B0000F0000F1E02080F8141D704702E008C8E7
:1047C000121F08C1002AFAD170477047002001E08B
:1047D00001C1121F002AFBD1704700002DE9FF5FC5
:1047E00082B00021DDE90430020DDDF840B0034362
:1047F00018D044F61050A2F2FF324243151411981B
:1048000001281FD0A5EB0B00401C5FEA000A4FF007
:1048100000064E4FDFF83891B046504615D5CAF124
:10482000000413E0119801244AA3012801D16FEA82
:104830000B010298119AC0E90031C0E9024206B0AA
:10484000BDE8F09FCBF10000DFE704460021404ABD
:10485000491842EB0450CDE9001012E0E00707D000
:1048600032463B4640464946FBF706FE80468946AF
:1048700032463B4610461946FBF7FEFD06460F46FC
:104880006410002CEAD1DDE90401DDE90023BAF16E
:10489000000F06DAFBF7F0FD42464B46FBF7ECFD56
:1048A00005E0FBF75BFE42464B46FBF757FE04462E
:1048B0000E460022284BFBF7D9FE03D84FF0FF30FD
:1048C000014607E00022254B20463146FBF72DFD2F
:1048D000FBF7B3FE102409E0002C0ADB0A220023B8
:1048E000FBF798FC039B30321A55641E50EA010214
:1048F000F2D1641C039AC4F111031444119A012AE1
:1049000003D0012208430DD10AE0084304D000205F
:104910004FF0110B119072E7A3EB0B056D1E0DE02C
:104920005B4504DD4FF0000205F1010504E003DA08
:104930004FF00002A5F10105002AECD00298119970
:10494000C0E90231C0E9004579E7000000001440E9
:104950000000F03F300000000000F0430000E03FA6
:104960002DE9FF4F95B09A46884606460025EEE1B0
:10497000252877D100242746F94A0121039400E035
:10498000044316F8013F203B01FA03F01042F7D12F
:1049900030782A2811D06FF02F033078A0F1300240
:1049A000092A16D8039A44F0020402EB820203EBB0
:1049B00042021044761C0390EFE758F8042B039250
:1049C000002A03DA504244F40054039044F00204F5
:1049D000761C30782E2816D116F8010F44F0040406
:1049E0002A280DD06FF02F023078A0F13003092B68
:1049F00009D807EB870302EB4303C718761CF3E7DC
:104A000058F8047B761C30786C280FD006DC4C28D4
:104A100017D068280DD06A2814D104E0742810D06B
:104A20007A280FD10DE044F400140AE044F4801415
:104A300001E044F440147278824202D104F58014FB
:104A4000761C761C307866280BD013DC582877D07B
:104A500009DC002875D04528F6D04628F4D0472830
:104A60001AD193E118E0632835D0642879D06528FD
:104A700012D18BE1702873D008DC6728F1D0692847
:104A80006FD06E280DD06F2806D1ACE073282CD0E3
:104A9000752874D0782853D05246179990476D1CCA
:104AA00054E1C4F30250022809D003280DD0D8F8ED
:104AB000001004280DD00D6008F1040846E1D8F874
:104AC0000010EA17C1E90052F6E7D8F800100D808F
:104AD000F2E70D70F0E718F8041B8DF800100020C5
:104AE0008DF80100EB46012003E058F804BB4FF0BD
:104AF000FF3061074FF0000102D40DE009F1010120
:104B00008946B9420FDA8145F8DB1BF80910002904
:104B1000F4D108E009F1010189468142FADB1BF872
:104B200009100029F6D103985346A0EB0907214646
:104B30003846179A00F080FA284400EB090507E090
:104B400044E008E10DE01BF8010B5246179990472D
:104B5000B9F10109F7D2534621463846179AF2E0D7
:104B600039E00A21C4F302524FF0000B0091022AEF
:104B700006D058F8040BC117032A09D00AE023E035
:104B800008F1070020F00702F2E80201904605E074
:104B900000B2C117042A01D140B2C117002906DAB8
:104BA0000A460021404261EB02012D2202E022056B
:104BB00004D52B228DF80420012203E0E20701D066
:104BC0002022F7E7914657E00A2100E010214FF03C
:104BD000000B00910BE010214FF0000B44F0040497
:104BE0000827009103E008204FF0000B0090C4F369
:104BF0000252022A05D058F8040B0021032A08D0DB
:104C000008E008F1070020F00702F2E802019046F0
:104C100003E080B2042A00D1C0B24FF0000922079D
:104C20002AD53278702A07D0DDF800C08CF0100C3D
:104C30005CEA0B0C05D00EE040228DF80420012226
:104C400008E050EA010306D030238DF804308DF8D7
:104C5000052002229146009B83F0080353EA0B03D0
:104C60000AD150EA010201D1620705D530228DF840
:104C700004204FF001097F1E3278582A04D039A24F
:104C80000C920CAA02920BE03BA2F9E75B46009A59
:104C9000FBF7C0FA0C9B9B5C029A521E02921370A7
:104CA00050EA0102F2D1029804A9081A00F1200B7F
:104CB000600702D524F4803400E001275F4502DD5F
:104CC000A7EB0B0000E0002000EB0B010090039825
:104CD0004944401A0390E00306D453462146179AEC
:104CE000039800F0A9F90544002706E001A8524600
:104CF000C05D179990476D1C7F1C4F45F6DBE003A4
:104D00000CD553462146179A039800F095F90544AF
:104D100004E030205246179990476D1C0099481EB8
:104D200000900029F5DC08E00298029952460078CC
:104D3000491C0291179990476D1CBBF10001ABF122
:104D4000010BF1DC5BE100F065F90544761C30787D
:104D500000287FF40DAE19B02846BDE8F08F0000A2
:104D60000928010030313233343536373839616241
:104D70006364656600000000303132333435363705
:104D8000383941424344454600000000600700D4E2
:104D9000062708F1070020F00700F0E8022380460C
:104DA00003F0004C5FEA0C0001D097A009E0200559
:104DB00001D596A005E0E00701D095A001E0AFF293
:104DC0004C001390307823F0004365280CD006DCAB
:104DD000452809D046281DD047287FD13BE06628CA
:104DE00018D067287AD136E00021112F01DB11207D
:104DF00000E0781CCDE9000104A90CA8FFF7EEFC47
:104E0000DDE90D010C9A4FF0000B07F1010910923A
:104E100000914EE04FF000400097CDE9011004A949
:104E20000CA8FFF7DBFCDDE90D020C9B0F994FF09E
:104E3000000B91461093009211B9791C00EB010907
:104E4000B7EB090003D4C0F1FF3B07F10109A9EB5F
:104E50000700019042E0012F00DA01270021112F05
:104E600001DD112000E03846CDE9000104A90CA8BD
:104E7000FFF7B4FCDDE90D010C9A00914FF0000B37
:104E8000B946109221070FD4009A4A4503DA914699
:104E900001E0A9F10109B9F1010F05DD109AA9F1AD
:104EA0000101515C3029F4D0B84202DA10F1040F4C
:104EB00003DA0121CDE9011010E0002803DC83446E
:104EC000A9EB000102E0411C494500DD8946A0EB49
:104ED0000B00401C01904FF000400290200705D4C9
:104EE0000198484502DB4FF0FF30019000208DF81B
:104EF0004B0002980DF14B07B0F1004F25D0022076
:104F00000C902B200D90029800280CDA4042029061
:104F10002D200D9007E00A210298FBF7D1F93031DE
:104F2000029007F8011D0C99481E0C900029F2DC34
:104F300002980028EFD1791E0D980870307800F0A3
:104F4000200040F0450007F8020D11A8C01BC01D4D
:104F500002901398007800B1012000EB090101983C
:104F600001EBE071029801440398401A401E03903F
:104F7000E00306D453462146179A039800F05CF8E4
:104F800005441398007818B15246179990476D1C44
:104F9000E00323D553462146179A039800F04CF8B6
:104FA00005441BE0BBF1000F07DB0098584504DD0A
:104FB0001098179910F80B0001E01799302052460D
:104FC000904701980BF1010B401E05F1010501907E
:104FD00004D12E205246179990476D1CB9F100015B
:104FE000A9F10109DEDC05E017F8010B524617991B
:104FF00090476D1C0299481E02900029F4DC53462C
:105000002146179A03989EE62D0000002B00000011
:10501000200000002DE9F041044600251E461746F9
:10502000880404D405E039462020B0476D1C641E76
:10503000F9D52846BDE8F0812DE9F0410446002568
:105040001E469046C80301D5302700E0202788047B
:1050500004D505E041463846B0476D1C641EF9D5BD
:105060002846BDE8F0810A68531C0B601070704739
:10507000002100E0491C8142FCD3704713B5322364
:10508000012269460248FDF7CDFB00981CBD0000D7
:105090000C010020FCF76AFAFEF7D6FCFEF71EF9B9
:1050A000FEF7DEF8FEF796F9FEF7DAF9FDF71AFCDF
:1050B000FDF73EFE0020FDF793FD0020FDF7AEFF5B
:1050C0004FF6FF70FDF7BEFF13A0FFF743FB012271
:1050D00013491448FDF70EFB0120FBF76FFC00EEAF
:1050E000100AF2EE040A0E48B8EE400A083880EEC4
:1050F000201A80ED061A00BFFDF734FEFDF7CCFC48
:10510000FEF758F8FBF722FCFEF7D2FBFEF7E8FCAF
:10511000FEF7E2FBF0E700003132333435000000E7
:10512000080000200C01002000000000000000002A
:10513000000000000000000000000000000000006F
:10514000000000000000000000000000000000005F
:1051500000000000000000000000800180018001CC
:105160008001800180018001800180018001800137
:10517000800180010000000080018001000000002B
:10518000000000000000000000000000CC00CC0087
:10519000CC00CC00CC00CC000000000000000000DF
:1051A00000000000000000000000000000000000FF
:1051B00000000000000000000000000000000000EF
:1051C00000000000600C600C600C30063006FE1F12
:1051D000FE1F300638071803FE1FFE1F18031803B2
:1051E0008C018C018C01000000008000E003F80FAE
:1051F0009C0E8C1C8C188C009800F801E007800E27
:10520000801C8C188C189C18B80CF00FE0038000E0
:1052100080000000000000000000000000000E18E8
:105220001B0C110C11061106110311039B018E01B9
:10523000C038C06C60446044304430441844186C3A
:105240000C380000000000000000E001F003380707
:10525000180618063003F001F000F8009C310E33F8
:10526000061E061C061C063FFC73F0210000000011
:105270000000000000000000000000000C000C0016
:105280000C000C000C000C000000000000000000EE
:10529000000000000000000000000000000000000E
:1052A0000000000000000000000000020003800178
:1052B000C000C000600060003000300030003000EE
:1052C000300030003000300060006000C000C000DE
:1052D0008001000300020000000020006000C00008
:1052E000800180010003000300060006000600069E
:1052F000000600060006000600030003800180018E
:10530000C00060002000000000000000000000005D
:1053100000000000C000C000D806F807E00130031C
:10532000380700000000000000000000000000003E
:10533000000000000000000000000000000000006D
:105340000000000080018001800180018001FC3F9D
:10535000FC3F80018001800180018001000000008D
:10536000000000000000000000000000000000003D
:10537000000000000000000000000000000000002D
:10538000000000000000000000008001800100011A
:10539000000180000000000000000000000000008C
:1053A00000000000000000000000000000000000FD
:1053B000E007E0070000000000000000000000001F
:1053C00000000000000000000000000000000000DD
:1053D00000000000000000000000000000000000CD
:1053E00000000000000000000000C000C00000003D
:1053F00000000000000000000000000C000C00068F
:105400000006000600030003000380038001800102
:105410008001C000C000C00060006000000000000B
:1054200000000000000000000000E003F007380E5C
:10543000180C0C180C180C180C180C180C180C184C
:105440000C180C18180C380EF007E00300000000D0
:105450000000000000000000000000018001C00109
:10546000F0019801880180018001800180018001A4
:105470008001800180018001800180010000000026
:1054800000000000000000000000E003F80F180C0E
:105490000C180C1800180018000C000600038001FE
:1054A000C000600030001800FC1FFC1F000000005E
:1054B00000000000000000000000E001F807180EE6
:1054C0000C0C0C0C000C0006C003C007000C0018EC
:1054D00000180C180C18180CF807E0030000000066
:1054E00000000000000000000000000C000E000F93
:1054F000000F800DC00C600C600C300C180C0C0CF4
:10550000FC3FFC3F000C000C000C000C00000000F5
:1055100000000000000000000000F80FF80F180065
:1055200018000C00EC03FC071C0E001C00180018EF
:1055300000180C181C0C180EF807E00300000000FF
:1055400000000000000000000000C007F00F381C41
:10555000181818000C00CC03EC0F3C0E1C1C0C1887
:105560000C180C18181C380EF007E003000000009F
:1055700000000000000000000000FC1FFC1F000CE9
:1055800000060006000380038001C001C000E000A7
:10559000600060007000300030003000000000004B
:1055A00000000000000000000000E003F007380EDB
:1055B000180C180C180C3806F007F007180C0C180B
:1055C0000C180C180C18380CF80FE0030000000041
:1055D00000000000000000000000E003F007380EAB
:1055E0001C0C0C180C180C181C1C381EF81BE0198D
:1055F0000018000C000C1C0EF807F0010000000061
:10560000000000000000000000000000000000009A
:105610000000000080018001000000000000000088
:105620000000000000000000800180010000000078
:10563000000000000000000000000000000000006A
:105640000000000080018001000000000000000058
:105650000000000000000000800180010001000146
:1056600080000000000000000000000000000000BA
:1056700000000000000000000010001C800FE0038C
:10568000F8001800F800E003800F001C0010000074
:10569000000000000000000000000000000000000A
:1056A0000000000000000000F81F000000000000E3
:1056B000F81F0000000000000000000000000000D3
:1056C00000000000000000000000000000000000DA
:1056D000000000000000000008003800F001C007D2
:1056E000001F0018001FC007F0013800080000006C
:1056F00000000000000000000000E003F80F180C9C
:105700000C180C180018000C000600038001C000E3
:10571000C000C00000000000C000C0000000000089
:10572000000000000000000000000000E007181862
:105730000420C229224A1144094409440944092287
:105740001113E20C024004201818E00700000000CA
:105750000000000000000000000080038003C0067D
:10576000C006C006600C600C301830183018F83FC6
:10577000F83F1C700C600C6006C006C00000000002
:1057800000000000000000000000FC03FC0F0C0CF7
:105790000C180C180C180C0CFC07FC0F0C180C3017
:1057A0000C300C300C300C18FC1FFC070000000003
:1057B00000000000000000000000C007F01F3838A3
:1057C0001C300C700660060006000600060006008D
:1057D000060006600C701C30F01FE007000000009F
:1057E00000000000000000000000FE03FE0F060E97
:1057F0000618061806300630063006300630063029
:10580000063006180618060EFE0FFE030000000004
:1058100000000000000000000000FC3FFC3F0C0006
:105820000C000C000C000C00FC1FFC1F0C000C00FA
:105830000C000C000C000C00FC3FFC3F00000000C2
:1058400000000000000000000000F83FF83F1800D2
:105850001800180018001800F81FF81F180018008A
:1058600018001800180018001800180000000000A8
:1058700000000000000000000000E00FF83F3C784E
:105880000E6006E007C00300030003FE03FE03C032
:1058900007C006C00EC03CF0F83FE00F000000005B
:1058A000000000000000000000000C300C300C3044
:1058B0000C300C300C300C30FC3FFC3F0C300C300A
:1058C0000C300C300C300C300C300C300000000070
:1058D0000000000000000000000080018001800145
:1058E00080018001800180018001800180018001B0
:1058F00080018001800180018001800100000000A2
:105900000000000000000000000000060006000685
:105910000006000600060006000600060006000657
:105920000006180618063807F003E0010000000022
:105930000000000000000000000006300618060C01
:10594000060606038601C60066007600DE008E01AC
:1059500006030606060C0618063006600000000066
:1059600000000000000000000000180018001800EF
:105970001800180018001800180018001800180067
:105980001800180018001800F81FF81F0000000089
:10599000000000000000000000000EE01EF01EF0FD
:1059A0001EF036D836D836D836D866CC66CC66CC1B
:1059B000C6C6C6C6C6C6C6C686C386C30000000025
:1059C000000000000000000000000C301C303C30E3
:1059D0003C306C306C30CC30CC308C310C330C33F0
:1059E0000C360C360C3C0C3C0C380C300000000023
:1059F00000000000000000000000E007F81F1C3855
:105A00000E70066003C003C003C003C003C003C020
:105A100003C006600E701C38F81FE007000000008D
:105A200000000000000000000000FC0FFC1F0C380C
:105A30000C300C300C300C300C18FC1FFC070C0028
:105A40000C000C000C000C000C000C00000000000E
:105A500000000000000000000000E007F81F1C38F4
:105A60000E70066003E003C003C003C003C003C0A0
:105A700007E006630E3F1C3CF83FE0F700C0000063
:105A800000000000000000000000FE0FFE1F0638AE
:105A90000630063006300638FE1FFE0706030606EF
:105AA000060C0618061806300630066000000000D6
:105AB00000000000000000000000E003F80F1C0CD4
:105AC0000C180C180C001C00F803E00F001E003826
:105AD000063006300E301C1CF80FE00700000000F6
