:020000040800F2
:1000000050090020B90100084D2300084F230008C3
:1000100053230008572300085B230008000000005A
:100020000000000000000000000000005F23000846
:100030006123000800000000632300086523000816
:10004000D3010008D3010008D3010008D301000840
:10005000D3010008D3010008D3010008D301000830
:10006000D3010008D3010008D3010008D301000820
:10007000D3010008D3010008D3010008D301000810
:10008000D3010008D3010008D3010008D301000800
:10009000D3010008D3010008D3010008D3010008F0
:1000A000D3010008D3010008D3010008D3010008E0
:1000B000D3010008D3010008D3010008D3010008D0
:1000C000D3010008D3010008D3010008D3010008C0
:1000D000D3010008D301000833350008D30100081C
:1000E000D3010008D3010008D301000800F002F892
:1000F00000F053F80AA090E8000C82448344AAF16F
:100100000107DA4501D100F048F8AFF2090EBAE86C
:100110000F0013F0010F18BFFB1A43F0010318473B
:10012000F064000010650000103A24BF78C878C160
:10013000FAD8520724BF30C830C144BF04680C60ED
:10014000704700000023002400250026103A28BF35
:1001500078C1FBD8520728BF30C148BF0B60704739
:10016000662905F02081642903F0F282732903F0E7
:100170001487002070471FB503F07EFF04000020A5
:10018000002104F0EFFC401C60600020002104F01E
:10019000D3FCE0601FBD10B510BD04F0B5F81146EA
:1001A000FFF7E9FF01F0B6FF04F0E1F803B4FFF751
:1001B000F2FF03BC04F0E2F8094880470948004711
:1001C000FEE7FEE7FEE7FEE7FEE7FEE7FEE7FEE707
:1001D000FEE7FEE704480549054A064B7047000064
:1001E000D7020008ED00000850030020500900204D
:1001F00050050020500500200CB500200190009013
:100200006C48006840F480306A49086000BF694863
:10021000006800F4003000900198401C01900098A4
:1002200018B90198B0F5A06FF1D16248006800F4E8
:10023000003010B10120009001E0002000900098F3
:10024000012843D15C48006840F010005A4908601A
:100250000846006820F0030008600846006840F087
:1002600002000860534840685249486008464068A8
:1002700048600846406840F480604860084640682E
:1002800020F47C1048600846406840F4E81048605C
:100290000846006840F08070086000BF454800686C
:1002A00000F000700028F9D04248406820F00300B8
:1002B000404948600846406840F00200486000BF7E
:1002C0003C48406800F00C000828F9D10CBD10B57E
:1002D000FFF792FF10BD10B53648006840F00100EE
:1002E000344908600846406834490840314948604C
:1002F00008460068324908402E49086008460068F0
:1003000020F4802008600846406820F4FE00486021
:100310004FF41F008860FFF7DAFF4FF000602949B3
:10032000086010BD10B5002100200022214B5B6841
:1003300003F00C0121B1042906D0082928D107E0D7
:10034000214B224C236027E01F4B204C236023E0ED
:10035000184B5B6803F47010164B5B6803F4803233
:10036000022303EB904022B9194B4343174C2360FF
:100370000DE0104B5B6803F4003323B1144B43438F
:10038000124C236003E0104B4343104C236003E006
:100390000D4B0E4C236000BF00BF064B5B68C3F3E0
:1003A00003130C4CE15C094B1B68CB40074C2360EA
:1003B00010BD000000100240002002400000FFF8C5
:1003C000FFFFF6FE08ED00E000127A0000000020BA
:1003D00000093D0004000020DF48006840F00100F3
:1003E000DD49086008464068DC490840DA49486051
:1003F00008460068DA490840D7490860084600689E
:1004000020F4802008600846406820F4FE00486020
:100410004FF41F0088607047CF49096821F480318C
:10042000CD4A11601146096821F480211160B0F5B0
:10043000803F03D0B0F5802F0ED106E0C649096891
:1004400041F48031C44A116007E0C349096841F4AE
:10045000A021C14A116000E000BF00BF704710B585
:1004600001460022002300204A11012A02D1BA4C81
:10047000236806E0022A02D1B74C236A01E0B64C99
:10048000636A01F01F02012494401C400CB101205A
:1004900000E0002010BD38B50020009000240025A9
:1004A00000BF3120FFF7DBFF05460098401C00909D
:1004B0000098B0F5A06F01D0002DF2D03120FFF7E9
:1004C000CEFF08B1012400E00024204638BD0146DB
:1004D0000020A14A106820F0F80040EAC100106036
:1004E0007047A04908607047024600209A4B586840
:1004F00020F47C1042EA01031843974B5860704780
:1005000098490866704701460020934A506820F0D9
:1005100003000843506070478F48406800F00C00AB
:100520007047014600208C4A506820F0F0000843D4
:100530005060704701460020874A506820F4E06010
:1005400008435060704701460020834A506820F4F9
:10055000605040EAC1005060704729B17E4A527A2B
:1005600002437D4B5A7204E07B4A527A82437A4BB3
:100570005A7270477B49D8310860704701460020A5
:10058000754A506820F4404008435060704700218D
:10059000714A20321170704A82F82010012802D06E
:1005A00004280AD104E001216B4A2032117005E0D1
:1005B0000521694A2032117000E000BF00BF70477A
:1005C0006949086070476449096A0143624A1162D7
:1005D0007047654944390860704730B500210022F2
:1005E000002400235C4D6D6805F00C0121B1042945
:1005F00005D0082923D105E05C4D056022E05B4D64
:1006000005601FE0544D6D6805F47012524D6D6821
:1006100005F48034022505EB92421CB9544D554334
:1006200005600BE04C4D6D6805F400351DB1504D73
:100630005543056002E04D4D5543056002E04B4DCA
:10064000056000BF00BF444D6D6805F0F001090969
:10065000484D6B5C0568DD4045603F4D6D6805F4B5
:10066000E061090A434D6B5C4568DD4085603A4DA9
:100670006D6805F46051C90A3E4D6B5C4568DD400C
:10068000C560354D6D6805F44041890B3A4D6B5C92
:10069000C568B5FBF3F5056130BD29B12E4A526935
:1006A00002432D4B5A6104E02B4A526982432A4B84
:1006B0005A61704729B1284A92690243264B9A61D0
:1006C00004E0254A92698243234B9A61704729B11D
:1006D000214AD2690243204BDA6104E01E4AD26902
:1006E00082431D4BDA61704729B11B4AD26802432D
:1006F000194BDA6004E0184AD2688243164BDA607C
:10070000704729B1144A12690243134B1A6104E07D
:10071000114A12698243104B1A61704712494039DD
:10072000086070470F49C86470470B49C87170472B
:100730000948406A40F080700749486270470146A6
:100740000020054A92680A400AB1012000E000201A
:100750007047014988727047001002400000FFF89E
:10076000FFFFF6FE000042428004424200127A007F
:1007700000093D00140000202400002010B50446AC
:10078000CC48844208D101210420FFF7ADFF0021AD
:100790000420FFF7A9FF46E0C748844208D10121A1
:1007A0000820FFF7A1FF00210820FFF79DFF3AE096
:1007B000C248844208D101211020FFF795FF002193
:1007C0001020FFF791FF2EE0BD48844208D101219F
:1007D0002020FFF789FF00212020FFF785FF22E07E
:1007E000B848844208D101214020FFF77DFF002155
:1007F0004020FFF779FF16E0B348844208D1012179
:100800008020FFF771FF00218020FFF76DFF0AE0D5
:10081000AE48844207D101218015FFF765FF002112
:10082000A015FFF761FF10BD10B501210846FFF7C5
:100830005BFF00210120FFF757FF10BD2DE9F041BC
:10084000024600250026002000230024002791F8FE
:1008500003C00CF00F0591F803C00CF0100CBCF1B4
:10086000000F03D091F802C04CEA050591F800C0D2
:10087000BCF1000F31D0146800202BE04FF0010CC8
:100880000CFA00F3B1F800C00CEA03069E4220D136
:1008900083004FF00F0C0CFA03F7BC4305FA03FC7E
:1008A0004CEA040491F803C0BCF1280F06D14FF0C4
:1008B000010C0CFA00FCC2F814C00AE091F803C065
:1008C000BCF1480F05D14FF0010C0CFA00FCC2F846
:1008D00010C0401C0828D1D31460B1F800C0BCF18E
:1008E000FF0F34DD546800202EE000F1080C4FF0BB
:1008F000010808FA0CF3B1F800C00CEA03069E42A6
:1009000021D183004FF00F0C0CFA03F7BC4305FA1A
:1009100003FC4CEA040491F803C0BCF1280F05D194
:1009200000F1080C08FA0CF8C2F8148091F803C022
:10093000BCF1480F07D100F1080C4FF0010808FA8C
:100940000CF8C2F81080401C0828CED35460BDE8D3
:10095000F0814FF6FF710180022181700421C17086
:1009600070470246002093680B400BB1012000E065
:10097000002070470146886880B270470246002018
:10098000D3680B400BB1012000E000207047014606
:10099000C86880B2704701617047416170470AB111
:1009A000016100E041617047C16070474FF48032DF
:1009B0000A4382618161826182698269704702466D
:1009C0000020434B18684FF68073184040EA02102D
:1009D00008433F4B186070473E49C8617047F0B507
:1009E0000A46002300240021002500F00046B6F14D
:1009F000004F02D1364EF16901E0354E7168C0F307
:100A0000034583B200F44016B6F5401F08D121F02B
:100A100070612F4E766826F070662D4F7E6012E072
:100A200000F48016B6F5801F06D1032606FA05F4F9
:100A3000A14341F0706106E0460D360103FA06F667
:100A4000B14341F0706122B1460D360103FA06F65A
:100A5000314300F00046B6F1004F02D11C4EF16167
:100A600001E01B4E7160F0BD30B500228B071C0FFA
:100A70000F2303FA04F2164B08338C1053F824307A
:100A80009343134C08348D1044F8253023468C10C2
:100A900053F824308C07240F00FA04F423430C4C41
:100AA00008348D1044F8253030BD0A49DC31086027
:100AB0007047000000080140000C01400010014098
:100AC0000014014000180140001C014000200140BA
:100AD000000001400000204231490143314A1160C9
:100AE000704770B5002100230F22C47804B32D4C49
:100AF000246804F4E064C4F5E064210AC1F104034D
:100B0000CA40447804FA03F184781440214309016F
:100B1000254C0678A155047804F01F050124AC404B
:100B200005786D11AD0005F1E025C5F8004109E03B
:100B3000047804F01F050124AC401C4D06787611A2
:100B400045F8264070BD1A4A0A400243154B1B1F48
:100B50001A60704739B1134A121D12680243114BD3
:100B60001B1D1A6006E00F4A121D126882430D4BCE
:100B70001B1D1A607047042808D14FF0E021096955
:100B800041F004014FF0E022116107E04FF0E02155
:100B9000096921F004014FF0E02211617047000063
:100BA0000000FA050CED00E000E400E080E100E068
:100BB00080FFFF1F10B50446FB48844209D1012184
:100BC0008803FFF791FD00214FF48040FFF78CFD73
:100BD00032E0F648844209D101214804FFF791FD33
:100BE00000214FF40030FFF78CFD25E0F0488442EF
:100BF00009D101218804FFF784FD00214FF48020F2
:100C0000FFF77FFD18E0EB48844209D10121C804B9
:100C1000FFF777FD00214FF40020FFF772FD0BE096
:100C2000E548844208D101210805FFF76AFD00214B
:100C30004FF48010FFF765FD10BD2DE9F04786B039
:100C400005460E460024A24600BFA1460027B089F3
:100C500000B100BF2F462C8A4CF6FF700440F0888C
:100C600004432C82AC894EF6F3100440B0883189DD
:100C70000843718908430443AC81AC8A4FF6FF40B6
:100C80000440B0890443AC8201A8FFF7A6FCC64823
:100C9000874202D1DDF810A001E0DDF80CA0A889A0
:100CA00000F4004040B10AEBCA0000EB0A103168C2
:100CB0004900B0FBF1F807E00AEBCA0000EB0A10AC
:100CC00031688900B0FBF1F86420B8FBF0F0040152
:100CD0002009642101FB1089A88900F4004040B17B
:100CE000322000EBC900B0FBF1F000F00700044334
:100CF00008E0322000EB09106421B0FBF1F000F0B5
:100D00000F0004432C8106B0BDE8F0874FF4165164
:100D1000016000218180C18001810C21418100217D
:100D20008181704710B502460020108A4FF2FF0300
:100D300018400B884C8823438C882343CC8823435A
:100D40001843108210BD0021018041808180C18044
:100D5000704721B1828942F40052828104E0828985
:100D60004DF6FF731A4082817047F0B503460024A8
:100D700000260025002040F66A17B94200D100BFC6
:100D80001846C1F3421401F01F06012707FA06F5C1
:100D9000012C01D10C3004E0022C01D1103000E014
:100DA00014301AB107682F43076002E00768AF43A9
:100DB0000760F0BD1AB1838A0B43838202E0838A05
:100DC0008B4383827047028A4FF6F0731A40028287
:100DD000028A0A430282704782894FF2FF731A40E7
:100DE000828182890A438281704721B1828942F0DF
:100DF0000202828104E082894FF6FD731A408281EB
:100E00007047028A4FF6DF731A400282028A0A4351
:100E10000282704721B1028A42F48042028204E0D9
:100E2000028A4BF6FF731A4002827047C1F3080230
:100E30008280704701468888C0F308007047818926
:100E400041F0010181817047028BD2B20283028B93
:100E500042EA012202837047028B02F47F4202833E
:100E6000028B0A430283704721B1828A42F020023A
:100E7000828204E0828A4FF6DF731A4082827047D2
:100E800021B1828A42F01002828204E0828A4FF607
:100E9000EF731A408282704721B1828A42F00802C1
:100EA000828204E0828A4FF6F7731A40828270478A
:100EB00021B1828942F40042828103E08289C2F337
:100EC0000E028281704721B1828A42F400628282DE
:100ED00004E0828A4FF2FF731A4082827047828A4E
:100EE0004FF6FB731A408282828A0A4382827047DD
:100EF00021B1828A42F00202828204E0828A4FF6A5
:100F0000FD731A408282704702460020B1F5007FCF
:100F100000D100BF13880B400BB1012000E000207E
:100F2000704701F40072B2F5007F00D100BFCA43E0
:100F30000280704770B5024600240023002500207F
:100F400040F66A16B14200D100BFC1F3421501F06C
:100F50001F03012606FA03F3012D02D196893340BF
:100F600006E0022D02D1168A334001E0968A334012
:100F70000C12012606FA04F41688344013B10CB1A1
:100F8000012000E0002070BD10B50022002340F6D3
:100F90006A14A14200D100BF0A1201249440A3B2F6
:100FA000DC43048010BD00000038014000440040D4
:100FB00000480040004C00400050004010B504467E
:100FC000FE48844208D10121C014FFF78DFB0021A7
:100FD000E014FFF789FBC4E0B4F1804F08D1012190
:100FE0000846FFF78EFB00210120FFF78AFBB8E0DF
:100FF000F348844208D101210220FFF782FB00213F
:101000000220FFF77EFBACE0EE48844208D10121CC
:101010000420FFF776FB00210420FFF772FBA0E01D
:10102000E948844208D101210820FFF76AFB00212A
:101030000820FFF766FB94E0E448844208D10121D0
:101040001020FFF75EFB00211020FFF75AFB88E01D
:10105000DF48844208D101212020FFF752FB002104
:101060002020FFF74EFB7CE0DA48844208D10121C2
:101070004014FFF739FB00216014FFF735FB70E0E7
:10108000D548844209D10121C804FFF72DFB002176
:101090004FF40020FFF728FB63E0D048844209D1D9
:1010A00001210805FFF720FB00214FF48010FFF716
:1010B0001BFB56E0CA48844209D101214805FFF7CD
:1010C00013FB00214FF40010FFF70EFB49E0C54869
:1010D000844208D101214020FFF713FB002140206A
:1010E000FFF70FFB3DE0C048844208D1012180207A
:1010F000FFF707FB00218020FFF703FB31E0BB482F
:10110000844208D101218015FFF7FBFA0021A015C8
:10111000FFF7F7FA25E0B648844209D10121080417
:10112000FFF7E2FA00214FF48030FFF7DDFA18E014
:10113000B048844209D101214804FFF7D5FA0021C3
:101140004FF40030FFF7D0FA0BE0AB48844208D1EF
:1011500001218804FFF7C8FA00214FF48020FFF72F
:10116000C3FA10BD00220288944B98420ED0994BCE
:1011700098420BD0B0F1804F08D0914B984205D0E7
:10118000904B984202D0904B984204D14FF68F7307
:101190001A404B881A438D4B984207D08C4B98428B
:1011A00004D04FF6FF431A40CB881A4302808B8845
:1011B00083850B880385814B98420BD0854B9842E1
:1011C00008D08B4B984205D08A4B984202D08A4B6C
:1011D000984201D10B7A038601238382704770B550
:1011E000002400220023058C4FF6FE76354005844E
:1011F000028C8388048B4FF68F752C40B51E2C40D3
:101200000D882C43751E2A400D892A434D882A4398
:101210006A4DA8420BD06F4DA84208D0744DA84229
:1012200005D0744DA84202D0734DA84213D14FF699
:10123000F7752A404D892A434FF6FB752A408D8861
:101240002A434FF6FF652B404FF6FF552B408D8903
:101250002B43CD892B4383800483CD8885860284EC
:1012600070BD70B5002400220023058C4FF6EF7688
:1012700035400584028C8388048B48F6FF752C402A
:101280004FF6FF452C400D884FF6FF7606EA052500
:101290002C434FF6DF752A400D8906EA05152A43CF
:1012A0004D8806EA05152A43444DA84202D0494D0F
:1012B000A8421DD14FF67F752A404D894FF6FF7623
:1012C00006EA05152A434FF6BF752A408D8806EABF
:1012D00005152A434FF6FF352B404FF2FF752B4083
:1012E0008D8906EA85052B43CD8906EA85052B43C2
:1012F00083800483CD880587028470BD70B5002487
:1013000000220023058C4FF6FF6635400584028CD1
:101310008388848B4FF68F752C404FF6FC752C40DC
:101320000D882C434FF6FF552A400D894FF6FF7666
:1013300006EA05252A434D8806EA05252A431F4D5E
:10134000A84202D0234DA8421DD14FF2FF752A407A
:101350004D894FF6FF7606EA05252A434FF6FF35FD
:101360002A408D8806EA05252A434EF6FF752B4054
:101370004DF6FF752B408D8906EA05152B43CD8967
:1013800006EA05152B4383808483CD8885870284F4
:1013900070BD70B5002200230024058C4EF6FF7648
:1013A00035400584038C8488828B48F6FF752A407B
:1013B0004FF6FF452A400D8820E00000002C014038
:1013C0000004004000080040000C004000100040F5
:1013D0000014004000340140004C01400050014026
:1013E0000054014000180040001C00400020004054
:1013F0000040014000440140004801404FF6FF76A4
:1014000006EA05252A434DF6FF752B400D8906EAAD
:1014100005352B434D8806EA05352B43FA4DA84286
:1014200002D0FA4DA84208D14BF6FF752C408D89A9
:101430004FF6FF7606EA85152C4384808283CD889B
:10144000A0F84050038470BD828B4FF2FF331A40E6
:101450008283828B4FF6FF7303EA01231A43828350
:101460007047F0B50C461546002200210026078C77
:101470004EF6FF7C07EA0C070784828B018C4FF63F
:10148000FF7707EA043640F6FF473A404FF6FF770A
:1014900007EA05273A434FF6FF7707EA03373A434F
:1014A000D94FB8420ED0D94FB8420BD0B0F1804FCF
:1014B00008D0D74FB84205D0D64FB84202D0D64F49
:1014C000B84206D14DF6FF77394046F4805739438C
:1014D00005E047F6FF57394044F48057394382838B
:1014E0000184F0BD828B4FF6F3731A408283828BA6
:1014F0000A4382837047F0B50C461546002200214E
:101500000026078C4FF6FF6C07EA0C070784828BD6
:10151000018C4FF6FF7707EA04264FF60C773A4026
:101520004FF6FF7707EA03172F433A43B64FB84207
:101530000ED0B64FB8420BD0B0F1804F08D0B44FA8
:10154000B84205D0B34FB84202D0B34FB84206D12B
:101550004FF6FF57394046F48077394305E04FF2A4
:10156000FF57394044F48077394382830184F0BDCA
:10157000028B4FF2FF331A400283028B4FF6FF7348
:1015800003EA01231A4302837047F0B50C4615465F
:10159000002200210026078C4FF6EF7C07EA0C079B
:1015A0000784028B018C4FF6FF7707EA041640F69A
:1015B000FF473A404FF6FF7707EA03373A434FF6C3
:1015C000FF7707EA05273A438F4FB8420ED08F4F77
:1015D000B8420BD0B0F1804F08D08D4FB84205D043
:1015E0008C4FB84202D08C4FB84206D14FF6DF770D
:1015F000394046F01007394305E04FF65F77394030
:1016000044F01007394302830184F0BD028B4FF68A
:10161000F3731A400283028B0A4302837047F0B5CA
:101620000C46154600220021068C4FF6FE773E4000
:101630000684028B018C4FF60C7632407E1C06EA43
:1016400003162E433243704EB0420ED06F4EB0425E
:101650000BD0B0F1804F08D06D4EB04205D06D4E2A
:10166000B04202D06C4EB04206D14FF6FD7631400A
:1016700044F00106314305E04FF6F576314044F081
:101680000106314302830184F0BD70B505460C4666
:101690005D4885420ED05D4885420BD0B5F1804F44
:1016A00008D05B48854205D05A48854202D05A4846
:1016B000854200D100E000BF208850B92389A2886C
:1016C00061882846FFF7ABFFE1882846FFF79EFFB9
:1016D00025E0208804280AD12389A2886188284629
:1016E000FFF753FFE1882846FFF742FF17E0208805
:1016F00008280AD12389A28861882846FFF7FBFEC3
:10170000E1882846FFF7EEFE09E02389A288618878
:101710002846FFF7A6FEE1882846FFF795FE70BD34
:101720002DE9F04105460C4600260127608808B9DE
:10173000022600E00026A088012801D1022700E04F
:1017400001272088A0B92389A28861882846FFF74D
:1017500066FFE1882846FFF759FF23893A4631465C
:101760002846FFF712FFE1882846FFF701FF13E044
:101770002389A28861882846FFF707FFE188284669
:10178000FFF7F6FE23893A4631462846FFF747FF22
:10179000E1882846FFF73AFFBDE8F0810A884B88C8
:1017A0001A438B881A43CB881A430B891A434B89F7
:1017B0001A438B891A43A0F8442070474FF6FF71F3
:1017C000818000210180C180418001727047002129
:1017D000018041808180C180018141818181C181FD
:1017E0007047002101804180012181800021C1805A
:1017F000018170470021018041808180C180018189
:101800004181818170470000002C0140003401407B
:101810000004004000080040000C004021B1028894
:1018200042F00102028004E002884FF6FE731A4083
:101830000280704731B1B0F8442042F40042A0F871
:10184000442005E0B0F84420C2F30E02A0F8442082
:1018500070471AB183890B43838102E083898B43EC
:10186000838170478182704741EA0203A0F84830C3
:1018700070471AB183890B43838102E083898B43CC
:101880008381704701894FF6F872114001817047DA
:101890000A46002101894FF68F73194011430181D7
:1018A000704730B504460D4629462046FFF7F0FF45
:1018B000208940F00700208130BD2DE9F041044629
:1018C0000D4616461F46602D06D13B460122314685
:1018D0002046FFF75AFE05E03B46012231462046EE
:1018E000FFF79DFE29462046FFF7D2FF208940F0F2
:1018F00007002081BDE8F08130B50C460021018948
:10190000C9B24FF6FF7505EA032515432543294360
:10191000018130BD2DE9F04105460E461746984637
:10192000002443463A4631462846FFF7E5FF2C8916
:101930004FF6F870044044F007044FF68F700440EF
:1019400044F070042C81BDE8F081F0B504460D46EA
:1019500016461F463B46324629462046FFF7CCFF37
:10196000208940F480402081F0BD0185828270474B
:101970000A46002101884FF68F73194011430180F8
:101980007047F0B50C4615461E4600210022002384
:101990000189028B038C4FF6F877394021434FF6CB
:1019A000FC473A4040F201173A434FF6DD773B409F
:1019B0004FF6FF7707EA06172F433B430181028367
:1019C0000384F0BD0A460021018B4FF68F73194046
:1019D0001143018370470A460021018B48F6FF73CB
:1019E00019404FF6FF7303EA02231943018370473E
:1019F0000A460021818B4FF68F7319401143818372
:101A000070470A460021818B48F6FF7319404FF654
:101A1000FF7303EA022319438183704721B10288CF
:101A200042F08002028004E002884FF67F731A4081
:101A30000280704721B1828842F00402828004E073
:101A400082884FF6FB731A408280704721B18288EA
:101A500042F00802828004E082884FF6F7731A4051
:101A60008280704721B1828842F00102828004E0C6
:101A700082884FF6FE731A40828070470A46002122
:101A8000018B4FF6F77319401143018370470A46E3
:101A90000021018B4FF2FF7319404FF6FF7303EAE9
:101AA00002231943018370470A460021818B4FF6B8
:101AB000F77319401143818370470A460021818BD7
:101AC0004FF2FF7319404FF6FF7303EA02231943E5
:101AD000818370470A460021018B4FF6FB73194042
:101AE0001143018370470A460021018B4FF6FF33F3
:101AF00019404FF6FF7303EA02231943018370472D
:101B00000A460021818B4FF6FB73194011438183F4
:101B100070470A460021818B4FF6FF3319404FF67C
:101B2000FF7303EA02231943818370470A460021A9
:101B3000018B4FF67F7319401143018370470A46AA
:101B40000021018BC1F30E014FF6FF7303EA02235C
:101B50001943018370470A460021818B4FF67F733A
:101B600019401143818370470A460021818BC1F3DC
:101B70000E014FF6FF7303EA022319438183704776
:101B80000A460021018C4FF6FD7319401143018470
:101B900070470A460021018C4FF6F7731940114334
:101BA000018470470A460021018C4FF6DF7319400B
:101BB0004FF6FF7303EA02131943018470470A4684
:101BC0000021018C4FF67F7319404FF6FF7303EA33
:101BD00002131943018470470A460021018C4FF615
:101BE000FF5319404FF6FF7303EA022319430184A0
:101BF00070470A460021018C4FF2FF7319404FF6DF
:101C0000FF7303EA02231943018470470A46002147
:101C1000018C4DF6FF7319404FF6FF7303EA023350
:101C200019430184704730B5002301248C40A3B2CE
:101C3000048C9C430484048C02FA01F5ADB22C435D
:101C4000048430BD30B5002304248C40A3B2048C3E
:101C50009C430484048C02FA01F5ADB22C43048445
:101C600030BD70B503460020002418461830012509
:101C70008D40ACB21D8CA5431D8409B1082909D142
:101C800000EB6100056825F07005056005681543E7
:101C900005600EE00D1FC5F34E052844056825F4C8
:101CA000E045056005684FF6FF7606EA02263543F3
:101CB000056070BD21B1028842F00202028004E09A
:101CC00002884FF6FD731A400280704721B10288E6
:101CD00042F00402028004E002884FF6FB731A40CF
:101CE0000280704721B1828842F08002828004E045
:101CF00082884FF67F731A408280704702884FF6C1
:101D0000F7731A40028002880A4302807047828873
:101D10004FF68F731A40828082880A438280704710
:101D200002894FF6F8731A40028102890A43028140
:101D3000704702894FF67F731A40028102890A4375
:101D40000281704781847047818570478186704722
:101D50000187704781877047A0F84010704702885C
:101D60004FF6FF431A40028002880A430280704700
:101D70000146888E70470146088F70470146888F5C
:101D800070470146B1F8400070470146888C7047A3
:101D90000146088D704702460020138A0B400BB1A4
:101DA000012000E000207047CA430282704730B52E
:101DB0000246002000230024158A05EA01039589C4
:101DC00005EA010413B10CB1012000E0002030BD90
:101DD000CA4302827047000070B5F848F8A1026853
:101DE000FA4801F077FCFA48FAA10268FC4801F0D1
:101DF00071FCFC48006803F047FA044622460B4693
:101E0000F9A1FC4801F066FCFB48006803F03CFACD
:101E1000044622460B46F9A1FB4801F05BFCEC4866
:101E2000ECA10268EE4801F055FCF848F8A1026800
:101E3000FA4801F04FFC70BD10B5FFF7CDFFF8A1D7
:101E4000182000F075FDE149482000F071FDE449DB
:101E5000782000F06DFDF149A82000F069FD10BD6B
:101E600070B503460D4619462944002403E011F8D5
:101E7000016B0655641C9442F9DB0026865470BD44
:101E800070B50446042200212046FFF7E9FF05460D
:101E90002946E74801F02CFD042205212046FFF7E2
:101EA000DFFF05462946E34801F022FD02220A2110
:101EB0002046FFF7D5FF054601F00DFDDE4908601D
:101EC00002220C212046FFF7CBFF054601F003FD5F
:101ED000DA49086002220E212046FFF7C1FF0546BD
:101EE00001F0F9FCD6490860022210212046FFF7D4
:101EF000B7FF054601F0EFFCD2490860022212212B
:101F00002046FFF7ADFF054601F0E5FCCE4908602D
:101F1000022214212046FFF7A3FF054601F0DBFC57
:101F2000CA4908603221CA4801F038FD204601F054
:101F3000D5FAC8A1BE4801F053FD48B1C7A1BC48BD
:101F400001F04EFD20B1C7A001F0C8FA002070BD1D
:101F5000BA4800680C280FDCB94800681F280BDC61
:101F6000B8480068182807DCB74800683C2803DC3C
:101F7000B64800683C2808DDBFA001F0AFFA322166
:101F8000B34801F00BFD0020E1E700BFDFE700B53B
:101F900089B0BE480078012844D10020BB490870B0
:101FA000AB48FFF76DFF80B3A14AA24906A800F035
:101FB0003BFF0A2206A9B64801F0BEFCA348006810
:101FC000A14909689F4A1268CDE9002102909C4806
:101FD00003689A4802689848016803A800F039FF2E
:101FE000182203A9AB4801F0A7FC1822A9496846AA
:101FF00001F0A2FCA64A07CA1346CDE907120690D3
:102000000A460146A44801F053F9A448006808B9FB
:10201000FFF712FF012240F22551A148FEF7A5FE6D
:1020200009B000BD00BFFBE710B5FFF7D5FE9DA1CD
:10203000182000F07DFC6F49482000F079FC7249BF
:10204000782000F075FC10BD2DE9F0414FF6FF70CF
:1020500000F08BFCFFF7E8FF5BE001F0D8F9954951
:10206000086008460068312804D0322810D0332890
:102070004CD12CE08948006808B9012000E000201C
:10208000864908604FF6FF7000F06FFCBDE8F081F4
:102090005948006803F0F8F806460022864B02F023
:1020A000A9FD044602F074FD534908604D480068DC
:1020B00003F0EAF8064600227F4B02F09BFD04463F
:1020C00002F066FD47490860FFF7AEFF1EE04A4890
:1020D000006803F0D9F806460022774B02F0EAFFC9
:1020E000044602F055FD444908603E48006803F08C
:1020F000CBF806460022704B02F0DCFF044602F0EB
:1021000047FD38490860FFF78FFF00BF00BFFFF7AA
:102110003EFFA2E700F060FB01F095FA01F058F9EC
:1021200001F03CFA5C4800F02BFE4FF6FF7000F027
:102130001CFC4FF6FF7000F068FB002000F06BFB0A
:102140005E4800684FF47A72B0FBF2F1481EB0F1BD
:10215000807F00D31BE0481E4FF0E02250615017F3
:102160000F22002807DA13071D0E554B00F00F044D
:10217000241F1D5503E013071C0E524B1C5400BFB7
:1021800000204FF0E02290610720106100BF01F0B5
:102190006BF901F0B9F9012240F225514048FEF7F0
:1021A000E4FD00214FF6FF7001F017FA012148020B
:1021B00001F013FAFFF740FEB5E0000080000020B8
:1021C0002020434E42523A2564000000A80000201F
:1021D000840000202020564E42523A256400000020
:1021E000C4000020500000202020434E42523A25D7
:1021F0002E326600E0000020540000202020564EC1
:1022000042523A252E326600FC0000207C0000205D
:10221000202049444C453A25640000001801002064
:102220002020202020202020204461746100000014
:102230005D0000205800002064000020680000209D
:102240006C00002070000020740000207800002046
:10225000D4020020564E425200000000434E42522B
:10226000000000004572726F72205479706520463C
:102270006F726D61740A00004572726F722054694A
:102280006D6520466F726D61740A00008800002041
:10229000500100205C01002074010020300000206B
:1022A0000044004020202020202020202050617267
:1022B000610000002C0000200000E03F0000002032
:1022C00018ED00E000E400E001F0A1F81A49086010
:1022D00008460068312802D034281FD10AE0174888
:1022E000006808B9012000E0002014490860FFF7E9
:1022F000ABFE13E01248006808B9012000E000209E
:102300000F490860084601780E48FFF787FA0C4825
:1023100001784FF4806001F060F900BF00BFFFF763
:102320008BFDFFF734FECFE70749086000BF064981
:1023300009680029FBD170472C00002030000020E4
:10234000340000200004004028000020704700BF37
:10235000FEE700BFFEE700BFFEE700BFFEE77047F5
:102360007047704702480068401E01490860704786
:1023700028000020002109E0002201E0531C9AB24D
:1023800040F6B8339A42F9DB4B1C99B28142F3DB39
:10239000704710B5FD4BDB689AB24FF40073FC4CEC
:1023A00023605B1023602023241F2360F74BD86039
:1023B0002023241D2360241F2360DB002360F34BB4
:1023C000D9602023241D2360241F2360DB002360A9
:1023D000EE4BDA6010BD00B501210020FFF7D9FFF8
:1023E0004FF47A70FFF7C6FF00210120FFF7D1FFFD
:1023F00041F290711020FFF7CCFF4FF41C51602088
:10240000FFF7C7FF01216120FFF7C3FF022146202C
:10241000FFF7BFFF48F210011320FFF7BAFF48F2A1
:10242000FE011220FFF7B5FF4FF4A0610220FFF775
:10243000B0FF41F230010320FFF7ABFF40F2033160
:102440003020FFF7A6FF40F203313120FFF7A1FF54
:1024500040F203313220FFF79CFF4FF440713320EC
:10246000FFF797FF03213420FFF793FF40F203317A
:102470003520FFF78EFF14213620FFF78AFF40F248
:1024800003313720FFF785FF40F203313820FFF793
:1024900080FF40F203313920FFF77BFF4FF440719A
:1024A0003A20FFF776FF03213B20FFF772FF40F24F
:1024B00003313C20FFF76DFF4FF4A0513D20FFF7A3
:1024C00068FF4FF400719220FFF763FF40F2033181
:1024D0009320FFF75EFF40F60D019020FFF759FFB4
:1024E00041F218010320FFF754FF40F27311072057
:1024F000FFF74FFF00BD00B543F20801E320FFF7EF
:1025000048FF1221E720FFF744FF41F23121EF207D
:10251000FFF73FFF00210120FFF73BFF4FF4E06191
:102520000220FFF736FF41F230010320FFF731FFB1
:1025300000210420FFF72DFF40F207210820FFF7BC
:1025400028FF00210920FFF724FF00210A20FFF7C0
:1025500020FF00210C20FFF71CFF00210D20FFF7BA
:1025600018FF00210F20FFF714FF00211020FFF7B4
:1025700010FF07211120FFF70CFF00211220FFF7A9
:1025800008FF00211320FFF704FF4FF47A70FFF7D4
:10259000F1FE41F290611020FFF7FBFE40F227218F
:1025A0001120FFF7F6FE3220FFF7E4FE1D21122076
:1025B000FFF7EFFE3220FFF7DDFE4FF4006113203E
:1025C000FFF7E7FE14212920FFF7E3FE0B212B2064
:1025D000FFF7DFFE3220FFF7CDFE00212020FFF7BE
:1025E000D8FE00212120FFF7D4FE07213020FFF77D
:1025F000D0FE40F207713120FFF7CBFE06213220DA
:10260000FFF7C7FE40F204713520FFF7C2FE41F626
:1026100004713620FFF7BDFE04213720FFF7B9FE15
:1026200000213820FFF7B5FE40F206713920FFF790
:10263000B0FE40F201713C20FFF7ABFE0F213D20C0
:10264000FFF7A7FE00215020FFF7A3FEEF21512046
:10265000FFF79FFE00215220FFF79BFE40F23F1143
:102660005320FFF796FE4FF41C516020FFF791FEB8
:1026700001216120FFF78DFE00216A20FFF789FE0E
:1026800000218020FFF785FE00218120FFF781FED9
:1026900000218220FFF77DFE00218320FFF779FED5
:1026A00000218420FFF775FE00218520FFF771FED1
:1026B00010219020FFF76DFE00219220FFF769FEA8
:1026C00003219320FFF765FE4FF488719520FFF7F3
:1026D00060FE00219720FFF75CFE00219820FFF7A5
:1026E00058FE41F218010320FFF753FE40F2731128
:1026F0000720FFF74EFE00BD08B54FF6FF70ADF89E
:10270000000003208DF8020010208DF803006946B8
:102710001E48FEF793F808BD08B54FF6FF70ADF8F8
:10272000000003208DF8020048208DF80300694660
:102730001648FEF783F808BD70B504464FF40070E4
:1027400013490860401008602020091F08600F48E6
:10275000C4602020091D0860091F0860C0000860CF
:10276000FFF7DAFF4FF48060094908600748806886
:1027700085B20815091F0860FFF7BEFF4FF400700F
:102780000349091F0860284670BD00000010014081
:10279000140C014008B501211820FDF78BFF012121
:1027A0002020FDF787FF4FF4E460ADF80000012022
:1027B0008DF8020010208DF803006946F648FEF7F8
:1027C0003DF8FFF799FFF4481030006840F4C4600A
:1027D000F1491031086008BD10B5FFF7DBFF00209C
:1027E000FFF7AAFFED4908800846008848F230212B
:1027F000884202D1FFF7EFFD01E0FFF77CFE0020E9
:10280000FFF79AFFE549088010BD01B5BDF800004B
:10281000E349088008BD01B5BDF80000E149088022
:1028200008BD30B504460D4621462020FFF7B1FD16
:1028300029462120FFF7ADFD30BDDB4AD26891B2B9
:102840004FF40072D44B14331A6052101B1F1A60DD
:1028500020221A60D44AD06020221B1D1A601B1F40
:102860001A60D2001A6052001A60CF4AD1607047D5
:10287000CD49C96888B24FF40071C74A143211605B
:10288000491011602021121F11602221C64AD16017
:102890002021C14A14321160121F1160C900116059
:1028A00049001160C049C86070472DE9F0430646F1
:1028B0008946174600240025A046B04649464046B2
:1028C000FFF7AFFF00BF1EE0FFF7D2FF00250FE0CC
:1028D00037F814000121A940084020B9B148008808
:1028E000FFF7ABFF03E0AE480088FFF7A6FF6D1CC3
:1028F000102DEDD308F1010000F0FF0849464046D5
:10290000FFF78FFF641C182CDED3BDE8F08370B591
:1029100005460E461446A4F12000C4B204EB440060
:10292000A24901EB001231462846FFF7BEFF70BDF9
:10293000F0B507460C46002540F23F1609E0227824
:1029400031463846FFF7E3FFA6F1100086B2641C5B
:102950006D1C207808B1142DF1D3F0BD10B50446DC
:1029600093A12046FFF7E4FF10BD30B505460024D3
:1029700000210846FFF755FFFFF77AFF00BF03E08D
:102980002846FFF75AFF641CB4F5963FF8D330BDD4
:10299000F0B504460D4616461F46B44206DBA01BA2
:1029A000401C81B25020FFF7F4FC03E000215020CE
:1029B000FFF7EFFC21465120FFF7EBFCBD4206DBA1
:1029C000E81B401C81B25220FFF7E3FC03E000212A
:1029D0005220FFF7DEFC29465320FFF7DAFC294698
:1029E0002046FFF71EFFF0BD00B54FF4A073F022A4
:1029F000591EEF20FFF7CCFF41F218010320FFF72B
:102A0000C8FC00BD2DE9F0410646884615461F4624
:102A1000002441463046FFF704FF5FB9FFF728FF67
:102A200000BF04E05E480088FFF707FF641CAC426B
:102A3000F8D310E000240CE0FFF71AFF5848008894
:102A4000FFF7FBFE701CC6B241463046FFF7E9FEB9
:102A5000641CAC42F0D3BDE8F081F0B505460E46EB
:102A600017461C460023224631462846FFF7CAFF78
:102A7000E919C8B2002322463146FFF7C3FF0123FC
:102A80003A4631462846FFF7BDFF301B401C81B255
:102A900001233A462846FFF7B5FFF0BD2DE9F04384
:102AA00006460F4690460320A0EB48090024454601
:102AB0006EE07A1991B23219D0B2FFF7B2FEFFF789
:102AC000D7FE37480088FFF7B8FE7A1B91B232195B
:102AD000D0B2FFF7A6FEFFF7CBFE31480088FFF724
:102AE000ACFE7A1991B2321BD0B2FFF79AFEFFF713
:102AF000BFFE2B480088FFF7A0FE7A1B91B2321B65
:102B0000D0B2FFF78EFEFFF7B3FE25480088FFF72F
:102B100094FE3A1991B27219D0B2FFF782FEFFF714
:102B2000A7FE1F480088FFF788FE3A1B91B2721972
:102B3000D0B2FFF776FEFFF79BFE19480088FFF73B
:102B40007CFE3A1991B2721BD0B2FFF76AFEFFF712
:102B50008FFE13480088FFF770FE3A1B91B2721B7C
:102B6000D0B2FFF75EFEFFF783FE0D480088FFF747
:102B700064FEB9F1000F04DA062000EB8400814402
:102B800005E0601B0A2101EB800081446D1E641C7E
:102B9000AC428ED9BDE8F083000C01403C0000201F
:102BA000380000203A00002000100140AA5300081D
:102BB0002020202020202020202020202020202015
:102BC000202020200000000070B5064600240025CB
:102BD00040F23F110020FFF724FEFFF749FE00BF3F
:102BE00014E000250FE056F824000121A940084018
:102BF00020B95F480088FFF720FE03E05D480088A9
:102C0000FFF71BFE6D1C202DEDD3641CB4F5166F71
:102C1000E7D370BD70B50446002500266688A088FD
:102C200046EA00466589A08945EA0045701B4608CA
:102C30002C4441F208010320FFF7ABFBFFF718FE1D
:102C4000002504E02088FFF7F8FDA41C6D1CB542A8
:102C5000F8D341F218010320FFF79BFB70BD10B5BC
:102C60004FF4007044490860401008602020091F9C
:102C7000086022204149C86020203F490860091FA0
:102C80000860C0000860FFF747FD4FF480603A49D4
:102C900008603A48806884B20815091F0860FFF789
:102CA0002BFD4FF400703449091F0860204610BD09
:102CB00000B500211020FFF76CFB00211120FFF769
:102CC00068FB00211220FFF764FB00211320FFF7AF
:102CD00060FB1420FFF74EFB41F2B0711020FFF7AC
:102CE00058FB40F237111120FFF753FB0520FFF787
:102CF00041FB40F239111220FFF74BFB0520FFF793
:102D000039FB4FF4E8511320FFF743FB132129202F
:102D1000FFF73FFB0520FFF72DFB40F27311072063
:102D2000FFF737FB00BD00B540F273110720FFF736
:102D300030FB00BD00B500210720FFF72AFB00BDD6
:102D400030B5054600210846FFF76BFDFFF790FD03
:102D5000002409E015F814206100491C695C42EA6E
:102D60000120FFF76AFD641CB4F5963FF2DB30BD2D
:102D70003A00002038000020140C014000100140EF
:102D80000146002000BF4CE000EB400202EBC00215
:102D900001EB8202F8A31B78537100EB400202EBB7
:102DA000C002F5A31B7801F82230002200EB40039B
:102DB00003EBC00301EB83035A6200EB400303EB18
:102DC000C00301EB8303DA60002300EB400202EB57
:102DD000C00201EB8202136100EB400202EBC00271
:102DE00001EB8202536100EB400202EBC00201EBF7
:102DF0008202936100EB400202EBC00201EB82020F
:102E0000D36100EB400202EBC00201EB82021362CD
:102E1000012200EB400303EBC00301EB83039A6242
:102E2000401C0828B0DB7047FEB504460E46154628
:102E300031460DF1050000F05BFD2946684600F0C3
:102E400057FD0098206001986060BDF8080020815F
:102E5000FEBD2DE9F04786B007460C4615461E46D6
:102E6000DDE90F9ADDF83880009401950296CDF8DF
:102E70000C80CDF81090CDF814A018226946384681
:102E800000F05AFD06B0BDE8F0870FB40A9801289B
:102E900001D104B070470020FBE70FB410B505A9BD
:102EA00002A800F09DFD50B90DF119010DF10D00C2
:102EB00000F096FD18B9012010BC5DF814FB00204D
:102EC000FAE7FFB587B005460024AC480068002843
:102ED00002DC00200BB0F0BDA9A108A800F080FD25
:102EE00000B90126A8A108A800F07AFD00B90226C1
:102EF0000024ABE004EB440000EBC40005EB8000D1
:102F000000F110011C22684600F016FD04EB44009D
:102F100000EBC40005EB80070FCFFFF7B6FF0028DA
:102F20007ED0012E09D195480068401E9349086063
:102F300097480068401C96490860022E09D18F48C6
:102F40000068401E8D49086092480068401C914905
:102F500008608A480068002827DC00214FF4807050
:102F600000F03BFB00214FF4007000F036FB002125
:102F70004FF4806000F031FB00214FF4006000F05E
:102F80002CFB00214FF4805000F027FB00214FF470
:102F9000005000F022FB00214FF4804000F01DFBA8
:102FA00000214FF4004000F018FB04EB440101EB5A
:102FB000C40105EB8101481D0DF1250100F098FCCD
:102FC00004EB440101EBC40105EB810008A900F00A
:102FD0008FFC04EB440101EBC40105EB8101109867
:102FE000C86004EB440000EBC40005EB80001199BD
:102FF000016104EB440000EBC40005EB8000129972
:10300000416104EB440000EBC40005EB8000139920
:10301000816104EB440000EBC40005EB800000E09C
:1030200013E01499C16104EB440000EBC40005EB0C
:10303000800015990162002004EB440101EBC401FA
:1030400005EB81018862012044E7641C082CFFF62F
:1030500051AF00203EE770B504460D4601214802FD
:1030600000F0BBFA05EB450000EBC50004EB800067
:1030700041A10978417105EB450000EBC5003EA177
:10308000097804F82010002005EB450101EBC5018B
:1030900004EB8101C860002105EB450000EBC50091
:1030A00004EB8000016105EB450000EBC50004EB7B
:1030B0008000416105EB450000EBC50004EB80009A
:1030C000816105EB450000EBC50004EB8000C161A8
:1030D00005EB450000EBC50004EB80000162012018
:1030E00005EB450101EBC50104EB8101886270BD70
:1030F0002DE9FF4F8BB08146DDF878B00024A24661
:1031000000210D460E461EA10CA800F069FC30B946
:10311000584602F0B9F805460E464FF0010A1AA1CA
:103120000CA800F05DFC30B91F9802F0ADF8054620
:103130000E464FF0020A0024B4E004EB440000EB1A
:10314000C40009EB800207CA08AB07C304EB4400C4
:1031500000EBC40009EB800000F10C01182202A86A
:1031600000F0EAFB04EB440000EBC40009EB800034
:10317000806A012810D194E0000000007C0000204B
:10318000434E425200000000564E425200000000E2
:1031900080000020840000200D980090BDF83800C9
:1031A000ADF804000C9B08A807C8FFF776FE0028BE
:1031B00076D0BAF1010F09D166480068401C654914
:1031C000086065480068401E63490860BAF1020F54
:1031D00009D160480068401C5E4908605F4800688B
:1031E000401E5E49086002991898401A40F26D111D
:1031F000484300EB4000C000039A1999891AC1EBBB
:103200000111490001EB410100EBC100049A1A9938
:10321000891A01EB410100EBC100059A1B99891A3B
:1032200008444F49086008460068002806DA002074
:1032300008604FF040410FB0BDE8F08F484800688B
:10324000C0B9DDE91C10C1EB011100EB8100069A49
:10325000C2EB02121D9901EB8201401A03D5002036
:103260004FF04041E7E721464846FFF7F4FE284685
:103270003146E0E73A48006802F032F8019002F087
:1032800003F807462A46334601F0E0FD354A03C2FB
:1032900021464846FFF7DFFE324903C9CBE7FFE787
:1032A00000BF641C082CFFF648AF00202E49C2E77F
:1032B0001FB588B004462D4800682D4909681822BA
:1032C000CDE906100EA9684600F036FB204609A994
:1032D0000EC9FFF70DFF234A03C20022224B2149EA
:1032E00003C901F03BFD11D118220EA9684600F078
:1032F00023FB204609A90EC9FFF7E3FD18B11DA065
:1033000000F0ECF802E021A000F0E8F800224FF015
:103310004043144903C901F021FD02D120A000F06F
:10332000DDF8002213460F4903C901F08DFE0FD8C6
:103330000C4803C8CDE90201094800681C4B1D4A2E
:103340001DA10090214800F0C5F9204800F0C6F802
:103350000CB010BD7C000020800000208400002004
:1033600040000020480000200000F0BF5400002072
:103370005000002053756363657373207061726B36
:10338000696E6720636172210A0000004572726FE6
:1033900072207061726B696E6720636172210A002E
:1033A0004572726F72205061726B54696D650A00CC
:1033B000580000205D00002025733A25733A2564EB
:1033C000686F75723A252E3266240A003401002097
:1033D00008B501210420FDF76DF901210820FDF752
:1033E00069F940F20110ADF8000048208DF80300A3
:1033F00001208DF8020069461948FDF71FFA0620E2
:10340000ADF8000069461748FDF718FA08BD10B579
:10341000FF2401211248FDF7A4FA18B9C820FEF7CD
:1034200083FF31244FF480710D48FDF79AFA18B9E3
:10343000C820FEF779FF322402210A48FDF791FAED
:1034400018B9C820FEF770FF332404210548FDF7A2
:1034500088FA18B9C820FEF767FF3424204610BD4B
:1034600000080140000C014000B585B00121042096
:10347000FDF720F901214804FDF729F90420ADF8F2
:10348000100018208DF8130003208DF8120004A9F5
:103490003D48FDF7D3F90820ADF8100004208DF861
:1034A000130004A93848FDF7C9F94FF4964000907D
:1034B0000020ADF80400ADF80600ADF80800ADF846
:1034C0000C000C20ADF80A0069463048FDF7B5FB4A
:1034D00001212E48FDF73DFC05B000BD70B5044646
:1034E000002500BF605781B22848FDF79FFC00BF50
:1034F00080212648FDF708FD0028F9D0681CC5B2D8
:10350000605D0028EED170BD08B54FF4C060FDF7D6
:10351000E3FA26208DF8000002208DF80100032038
:103520008DF8020001208DF803006846FDF7D9FAF6
:1035300008BD10B540F225511448FDF7FBFC10B34F
:1035400040F225511148FDF71FFD1048FDF772FCB0
:10355000C4B20F48007815280CD100200C4908701F
:1035600001200C490870002240F225510748FDF760
:10357000FCFB08E0084806490978445404480078F0
:10358000401C0349087010BD000801400044004081
:103590008900002088000020D402002008B5012105
:1035A0001020FDF787F801212020FDF783F84FF464
:1035B0007F40ADF8000010208DF8030001208DF849
:1035C000020069461448FDF739F90420ADF80000FF
:1035D00069461248FDF732F908BD70B504460D463C
:1035E00065B921460C48FDF7D6F904210B48FDF7D3
:1035F000D2F904210948FDF7D0F90BE0214606482D
:10360000FDF7CBF904210548FDF7C5F9042103486E
:10361000FDF7C3F970BD0000001001400014014027
:1036200008B501210420FDF745F88020ADF8000021
:1036300018208DF8030003208DF802006946234806
:10364000FDF7FCF808BD00B587B0FFF7E9FF0121E1
:103650000220FDF73CF840F2F310ADF81400002012
:10366000ADF81000ADF81600ADF8120004A9184826
:10367000FDF778FD012247211548FEF776F9702005
:10368000ADF800000120ADF802000420ADF8040000
:103690006420ADF806000220ADF808000020ADF867
:1036A0000A004FF48070ADF80C000020ADF80E0059
:1036B00069460748FDF7D5FD01210548FEF7AEF83C
:1036C00000210348FEF7B6F807B000BD000801402E
:1036D000000400400FB41CB5074B06AA7B446946A2
:1036E0000090059800F02FFC0020694600F03EFC99
:1036F0001CBC5DF814FB00008D08000070B50C4682
:103700000546012A05D02878800600D5EA690023FD
:1037100002E0012305E05B1C934202D2E05C00283A
:10372000F9D1A869E618C01AA861286A1844286265
:103730002846AFF3008004E0D5E9012114F8010B1D
:103740009047B442F8D32846AFF3008070BD000024
:103750002DE9F0410646002410687529314616A56A
:1037600010D0AFF30080002802DA404213A507E032
:1037700031688A0701D512A502E0490704D511A5D1
:10378000012401E0AFF3008000210A2206F12407A2
:1037900009E0B0FBF2FCB0FBF2F302FB1C0030309E
:1037A00078541846491C0028F3D123462A4630464F
:1037B000BDE8F04100F05CB9000000002D00000001
:1037C0002B000000200000002DE9F0474FF0000A18
:1037D00089460446C0F820A02046E16888470028B2
:1037E00076D0252806D0D4E901219047206A401CD4
:1037F0002062F1E7E168204600258847C4F81CA054
:1038000006460027C4F818A02A2E09D0304601F039
:103810008BF938B304EB8708303EC8F8186019E01C
:1038200059F8041B204604EB87029161E168884740
:10383000012F064618D1E069002820DA25F020057E
:103840001DE0D8F8180000EB800006EB400030388F
:10385000C8F818002046E1688847064601F064F978
:103860000028EED1012F0AD02E2E08D12046E16883
:1038700088477F1C0646022F45F02005C4DBA0695F
:10388000002803DA404245F00105A061E80701D0B5
:1038900025F01005B6B1A6F14100192802D820364E
:1038A00045F400654A463146204625604D46FCF702
:1038B00057FC58B1012806D0ED1D25F0070000F196
:1038C000080989E704E005F1040985E730468AE73D
:1038D000206ABDE8F08770B5064600F0C5F80468B8
:1038E000054630460A22002100F05BFB2C6070BDCB
:1038F00040EA0103024630B59B0710D14FF0013476
:1039000000E008C208C91D1B9D4315EAC41FF8D07A
:1039100013F0FF0102F8011B0DD01B0AF8E711F8A4
:10392000013B002B02F8013B05D011F8013B002BB5
:1039300002F8013BF3D130BD10B5203AC0F00B8046
:10394000B1E81850203AA0E81850B1E81850A0E8A3
:103950001850BFF4F5AF5FEA027C24BFB1E81850FD
:10396000A0E8185044BF18C918C0BDE810405FEA6D
:10397000827C24BF51F8043B40F8043B08BF7047E9
:10398000D20728BF31F8023B48BF11F8012B28BFEE
:1039900020F8023B48BF00F8012B70474FF00002AF
:1039A0000429C0F0128010F0030C00F03483CCF135
:1039B000040CBCF1020F18BF00F8012BA8BF20F8BF
:1039C000022BA1EB0C0100F026BB5FEAC17C24BFF7
:1039D00000F8012B00F8012B48BF00F8012B7047BD
:1039E0004FF0013C50F8042B51F8043B9A4221D18E
:1039F000A2EB0C03934313EACC1317D150F8042B1A
:103A000051F8043B9A4215D1A2EB0C03934313EAFD
:103A1000CC130BD150F8042B51F8043B9A4209D136
:103A2000A2EB0C03934313EACC13DBD04FF000005E
:103A3000704700BFD01A01BAB1FA81F101F0180144
:103A400022FA01F0CB40C1F12001DBB2C0B2C01AB2
:103A50002CFA01F3D11A914311EAC311E6D1704750
:103A6000704770477047000000487047F002002020
:103A70002DE9F0470D4699469246044600F1240888
:103A80000168880604D5E06921F01001216000E09A
:103A90000120A84201DD471B00E00027A1697A1937
:103AA00002EB0900081AA0612078C00602D4204663
:103AB000AFF30080002608E0D4E901211AF80600DF
:103AC0009047206A401C761C20624E45F4DB20782B
:103AD000C0060AD52046AFF3008006E0D4E90121F4
:103AE00030209047206A401C2062381EA7F1010751
:103AF000F4DC07E0D4E9012118F805009047206ABA
:103B0000401C2062281EA5F10105F3DC2046AFF31E
:103B100000802078000602D50220BDE8F087012051
:103B2000FBE770472DE9FF4F0C461E464FF0FF376D
:103B30008BB0D2E90001DDF860800A908A46C1F3BB
:103B40000A5505B93D46002108464FF00000BAF17C
:103B5000000F00F4400005DA00EB80004FF4400154
:103B600001EA50004FEA9059B9F1010F00DDB94662
:103B70000A9850EA4A000ED044F61050A5F2FF35DC
:103B800045432F14B8F1000F1ED07542291E1EDDCB
:103B9000C9F100021CE0B8F1010F4FF0000001D0A4
:103BA000302103E0F24305E02154401CB042FBDB2E
:103BB00030460022002121540B99C1F80880C1E948
:103BC00000200FB0BDE8F08FBD1B6D1CDEE74A463C
:103BD00000DA694206A800F029FB06AB93E807006B
:103BE00003AB83E8070050460A9900F0CEFB8DE84E
:103BF0000700A0F500501F3800900398002D09DD44
:103C000042F21F014A46084403A90390684600F0A7
:103C10002DFE08E0A0F500504A461F3803A9039086
:103C2000684600F037FE8DE807000004000C03D062
:103C30004FF0FF30410800E01046B8F1000F03D00C
:103C40000022009215461EE0751E05D400F018FAF9
:103C5000303262556D1EF9D5B3460122084302D0B9
:103C600000227F1C04E02078302801D100227F1E32
:103C7000002A099786D01DE0112D07DA00F000FA1E
:103C8000303262556D1C50EA0102F5D1084302D072
:103C90000098C8B10EE00021681E05E0235C625C5C
:103CA00063542254401E491C8142F7DBAB46A81BDB
:103CB000401E0990002004F80B000B98099AC0F8E8
:103CC0000880C0E9002B7CE711264FF0000859E777
:103CD0002DE9F04F88460446D21D22F0070191B02D
:103CE000D1E90001CDE90A0100F00AFF02460B9874
:103CF000C00F01D02D2007E02068810701D52B20BF
:103D000002E0202101EAC000032A099001D0072A1D
:103D100005DB03464146204600F0F8F90BE1207828
:103D2000800601D5E06900E00620B8F1650F814604
:103D300006D0B8F1660F18D0B8F1670F70D131E036
:103D40000020B9F1110F009001DB112301E009F10E
:103D500001030AAA01A90CA8FFF7E4FEDDE90C7033
:103D6000002609F10105834647E001204B460090FB
:103D70004FF000470AAA01A90CA8FFF7D3FEDDE91E
:103D80000DB00C995D46002610B909F101000D181F
:103D9000B9EB050003D4C0F1FF3609F10105A5EB2D
:103DA00009002BE0B9F1010F01DA4FF00109002001
:103DB000B9F1110F0090484601DD112300E00346E0
:103DC0000AAA01A90CA8FFF7ADFEDDE90C704D466B
:103DD00000268346207800070AD4AB4500DA5D460A
:103DE00001A8012D04DD411911F8011C302907D06B
:103DF0004F4502DA17F1040F04DA012082460FE082
:103E00006D1EEEE7002F02DCED1B3E4403E0781C44
:103E1000A84200DD7D1CB81B00F1010A4FF00047ED
:103E20002078000703D4AA4501DB4FF0FF3A0021B8
:103E3000B7F1004F0DF143088DF8431024D0022054
:103E40002B23002F01DA7F422D230A21021EA0F12D
:103E5000010000DC5FB197FBF1FC97FBF1F201FB85
:103E60001C7C17460CF1300C08F801CDEEE7A8F1E8
:103E7000010003702188090501D5452100E0652175
:103E8000A0F1010800F8011C09980FA9A1EB08078F
:103E9000FF1D00B10120411901EBEA70A16938440E
:103EA000081A401EA0612078C00602D42046AFF355
:103EB0000080099828B1D4E901219047206A401C6C
:103EC00020622078C00622D52046AFF300801EE095
:103ED000002E04DBB34502DD01A8805D00E0302048
:103EE000D4E901219047206A401C2062761CAAF187
:103EF00001005FEA000A0AD100F0BEF8C06801685C
:103F0000405CD4E901219047206A401C2062281EB1
:103F1000A5F10105DCDC07E0D4E9012118F8010B6B
:103F20009047206A401C2062381EA7F10107F3DC8D
:103F30002046AFF30080032011B043E601694A1C1C
:103F400002610878704700B58FB0CDE901310021DA
:103F5000059105497944CDE9031011466846FFF7FC
:103F600033FC0FB000BD0000E5FFFFFF0A6802F858
:103F7000010B0A60704710B5436913B1AFF30080BD
:103F800001E0FFF7BBFB012010BD127800F1240116
:103F90000A7000224A700122EDE711684FF0FF32EB
:103FA000E9E72DE9F04791460F4680460446002692
:103FB00014F8015B2DB100F057F80068405DC007B0
:103FC000F6D12B2D02D02D2D18D0641E4A4639462D
:103FD000204600F0DBF827B13968A14201D1C7F8CB
:103FE00000804FF0020471050BD54042002803DD2C
:103FF000FFF73AFD0460A007BDE8F08746F480664D
:10400000E4E70028F8DAFFF72FFD04606FF00040C6
:10401000F2E74FF0000200B5134694469646203969
:1040200022BFA0E80C50A0E80C50B1F12001BFF471
:10403000F7AF090728BFA0E80C5048BF0CC05DF8D7
:1040400004EB890028BF40F8042B08BF704748BF25
:1040500020F8022B11F0804F18BF00F8012B704799
:1040600000487047F002002010B500F005F8001D70
:1040700010BD00BFF10A0000004870471003002087
:1040800030B5B0F10A024FEA900E71F100034EEA2A
:10409000817EB0EB0E0061EB91014FEA101E4EEAFB
:1040A000017E10EB0E0041EB11114FEA102E4EEA8B
:1040B000016E10EB0E0041EB11214FEA104E4EEA5B
:1040C000014E10EB0E0041EB1141401841F100018F
:1040D0004FEAD00040EA41704FEAD10110EB800571
:1040E0004FEA810444EA907444EB01046D1944EBF7
:1040F0000404521BA3414FF0000348BF0A3200D50D
:1041000030BD401C41F1000130BD00002DE9F041FF
:104110001F46044603260168072A01F4006004DBF9
:1041200008B116A505E016A503E008B115A500E045
:1041300015A521F010002060A069C01EA0610FB17C
:10414000401EA0612046AFF300804FB1D4E90121A9
:1041500038469047206A401C2062C01C206206E05E
:10416000206AFAE7D4E9012115F8010B9047761E81
:10417000F8D22046AFF30080BDE8F0814E414E00FA
:104180006E616E00494E4600696E66002DE9F05F73
:10419000824615468B4600270AF10104B94600788D
:1041A000302801D09DB113E014F8010B01277828C5
:1041B00003D0582801D045B10AE00DB1102D07D128
:1041C000002714F8010B102502E0082500E00A255D
:1041D0000026B0460EE005FB080005FB06F10127AE
:1041E0001FFA80F801EB1046B6F5803F00D3B946C0
:1041F00014F8010B294600F0ACF80028EBDABBF10B
:10420000000F05D00FB1641E00E05446CBF800400B
:10421000B9F1000F06D0FFF727FC02210160C81E8C
:10422000BDE8F09F48EA0640FAE700002DE9F047B4
:10423000814616468AB0334878440DC88DE80D0093
:1042400030487844801C03AC0DC884E80D0041F66A
:104250009B300844372190FBF1F290FBF1F5A5F17A
:10426000800501FB12041B3C02D56442012000E0E2
:104270000020DFF890A080460027FA44AAF1BE0A89
:104280000DE0E00709D03246684607EB47010AEB2C
:10429000810100F0FFFA8DE8070064107F1C002CFC
:1042A000EFD1184F7F44AC3F18E0E80714D007EB7C
:1042B00004100DF1180A90E80E008AE80E00C0689C
:1042C000F04201D198190890324606A903A800F0DF
:1042D000E1FA03AB83E807006D10641C002DE4D104
:1042E00032466946B8F1000F03A802D000F0BEFACA
:1042F00001E000F0CFFAC9E90001C9F808200AB0CE
:10430000BDE8F087BC2300007546FFF7A9FEAE4666
:1043100005006946534620F00700854618B020B5D1
:10432000FBF758FFBDE820404FF000064FF00007B4
:104330004FF000084FF0000B21F00701AC46ACE84D
:10434000C009ACE8C009ACE8C009ACE8C0098D46BA
:1043500070473A2800D2303820F02002412A01D399
:10436000A2F13700884201D34FF0FF307047044676
:10437000AFF300802046FBF719FF00000149182029
:10438000ABBEFEE72600020070475FEA400C08BFA4
:1043900091F0000F4FEA8C234FEAC12243EA5151BA
:1043A0004FEA1C5018BF00F5F0404FEA300018BF2C
:1043B00041F000415FEA6C5C00F02980BCF1FF3FF6
:1043C00008BF40F080407047130C06BF12044FF046
:1043D000100C4FF0000C130E04BF12020CF1080C6D
:1043E000130F04BF12010CF1040C930F04BF9200D1
:1043F0000CF1020CD30F04BF52000CF1010C11465A
:104400004FF00002A0F11F00A0EB0C00704711F06C
:10441000004F08BF704731F000413FF4D5AF0B0C9F
:1044200006BF09044FF0100C4FF0000C0B0E04BF38
:1044300009020CF1080C0B0F04BF09010CF1040C6C
:104440008B0F04BF89000CF1020CCB0F04BF490095
:104450000CF1010CCCF12003A0EB0C0022FA03F3C9
:1044600002FA0CF241EA030100F10100704720F06A
:104470007F4C80EA030023F07F47ACEB070303F592
:104480007C5300F0004003F1FF032DE980494FEA1F
:10449000154B09B44FEA144325EA0B4E24EA0348AE
:1044A0000FF2042606EB132749083E785FEA320232
:1044B00003FB0667C7F5000707FB06F64FEA54370C
:1044C0004FEAD64606F1020607FB066CCCF1005C0B
:1044D0004FEA1C472CEA074C07FB06F40CFB06F5D9
:1044E00004EB15464FEA961634BF00204FF000400B
:1044F0004FEAD13706FB07FC4FEA1C4C0CFB0BF7CD
:10450000D21B03FB0CF761EB07010CFB0EF7B0EBC2
:10451000074072EB17420CFB08F734BFA2EB0742CF
:10452000B2EB074261EB17414FEA0C444FEA9107A7
:1045300006FB07FC4FEA1C4C0CFB0BF7B0EBC7402B
:1045400072EB573203FB0CF734BFA2EBC742B2EB5E
:10455000C74261EB57310CFB0EF7B0EBC70072EBB3
:1045600057720CFB08F734BFA2EBC702B2EBC702CD
:1045700061EB5771039F4FEA816141EA921104EBAD
:10458000CC044FEAD1374FEA826206FB07FC42EACD
:1045900090124FEA80604FEA1C4C0CFB0BF7D21BC9
:1045A00003FB0CF761EB07010CFB0EF7B0EB0740C8
:1045B00072EB17420CFB08F734BFA2EB0742B2EBD9
:1045C000074261EB17414FEA8C554FEA910704EB24
:1045D0009C2406FB07FC4FEA1C4C0CFB0BF7B0EBD2
:1045E000C74072EB573203FB0CF734BFA2EBC74254
:1045F000B2EBC74261EB57310CFB0EF7B0EBC700D3
:1046000072EB57720CFB08F734BFA2EBC702B2EB98
:10461000C70261EB577115EB4C254FEA816141EA06
:1046200092114FEA82624FEAD13742EA901206FBBA
:1046300007FC44F100044FEA80604FEA1C4C0CFB7D
:104640000BF7D21B03FB0CF761EB07010CFB0EF71A
:10465000B0EB074072EB17420CFB08F734BFA2EB3C
:104660000742B2EB074261EB174115EB1C154FEA0D
:10467000813141EA92414FEA823242EA90424FEA66
:1046800080304FEA0C7644F1000448EA03434EEAD6
:104690000B484FF0000EB2EB080C71EB030724BF80
:1046A000624639464EEB0E0E4FF0000B0018524199
:1046B00049414BEB0B0BB2EB080C71EB03077BF1A1
:1046C000000B24BF624639464EEB0E0E4FF0000B36
:1046D0000018524149414BEB0B0BB2EB080C71EB4C
:1046E00003077BF1000B24BF624639464EEB0E0EEA
:1046F00051EA020718BF46F0010616EB0E7655F197
:10470000000254F1000103D5BDE88901BDE800882D
:10471000BDE88901BDE80048B619524141EB0101ED
:10472000A3F10103704780807F7E7D7C7B7A79785E
:10473000777676757473727171706F6E6E6D6C6C66
:104740006B6A6A6968686766666564646363626108
:104750006160605F5F5E5E5D5D5C5C5B5B5A5A5989
:1047600059585857575656555555545453535252F5
:104770005251515050504F4F4F4E4E4D4D4D4C4C4D
:104780004C4B4B4B4A4A4A49494948484847474796
:1047900047464646454545444444444343434342D3
:1047A000424242414141002B26D4770021D01CB522
:1047B0004FEA370703B44FF010004FF010014FF0ED
:1047C00000000FBCBDE810400BF1010BBBF1010F65
:1047D00008BF5FEA170722BF12F1010211F10101C0
:1047E0004FF0004143F1000300F0004043EA0000B5
:1047F0007047F9D35708DAE746EA064613F1400F47
:104800004FEA16461FDD13F1200FDFBF16430A469D
:10481000002120335B42C8D0C3F1200746EA064698
:1048200002FA07F74FEA164646EA0706C3F12007E1
:1048300022FA03F201FA07F721FA03F14FF000031D
:1048400042EA0702B1E746EA020646EA06464FEAAE
:10485000164646EA0106BCBF46EA0646360C4FF04D
:1048600000034FF000024FF000019EE72DE9C04821
:10487000934630B491E8380007C831EA400C48BF8D
:1048800034EA430C03D5FFF7F2FDFFF78CFFF0BCD1
:10489000BDE800882DE9C048934630B491E838005F
:1048A00007C810F0804F08BF13F0804F03D100F00D
:1048B00005F8FFF778FFF0BCBDE8008820F07F47DF
:1048C00080EA030023F07F4C07EB0C03A3F57C5335
:1048D00000F00040A3F1FE0392F0000F00F0B3805F
:1048E00095F0000F00F077802DE901494FEA114063
:1048F0004FEA144621EA004800FB06FC24EA06477A
:1049000008FB06F607FB08F800FB07F718EB06485C
:104910004CEB164C4FEA124B18EB07484FEA154682
:104920004CEB174022EA0B4E0BFB06FC25EA064730
:104930000EFB06F607FB0EFE0BFB07F71EEB064E03
:104940004CEB164C4FF000061EEB074E4CEB174B92
:1049500018EB0B0840F1000018EB0E0B58EB0008A9
:1049600040F100008F1A4FF000013CBFC943661BA5
:1049700014BFB5EB040C00213CBFC943F61B4FEA42
:1049800017444EEA8E0E27EA04454FEA1C4704FB03
:1049900007622CEA074C05FB07F70CFB05F604FB46
:1049A0000CFC16EB074642EB174216EB0C4642EBAB
:1049B0001C421BEB060658EB0202414146EA9E06EA
:1049C00001D5BDE80189B619524141EB0101A3F1BE
:1049D0000103BDE801894FEA14454FEA114724EA73
:1049E000054621EA074C05FB07F406FB07F70CFB1D
:1049F00006F105FB0CFC11EB074144EB17444FEAB1
:104A0000124711EB0C4144EB1C4422EA074C05FB16
:104A100007F206FB07F70CFB06F605FB0CFC16EB92
:104A2000074642EB174216EB0C4642EB1C456A1850
:104A300054F1000148BF7047B619524141EB0101E2
:104A4000A3F10103704795F0000F37D04FEA1142F0
:104A50004FEA144721EA024624EA074C02FB07F119
:104A600006FB07F70CFB06F402FB0CFC14EB0744F7
:104A700041EB17414FEA154714EB0C4441EB1C4145
:104A800025EA074C02FB07F506FB07F70CFB06F6C9
:104A900002FB0CFC16EB074645EB174516EB0C46E4
:104AA00045EB1C42121951F1000148BF7047B6197D
:104AB000524141EB0101A3F1010370474FEA144554
:104AC0004FEA114724EA054621EA074C05FB07F1A6
:104AD00006FB07F70CFB06F24FF0000605FB0CFC8B
:104AE00012EB074241EB174112EB0C4251EB1C4118
:104AF00048BF7047921841EB0101A3F101037047D1
:104B0000490050EAC12018BF04204A0D18BF40F0E8
:104B1000010040F2FF72B2EB515F08BF40F00200AB
:104B2000012808BF0520704730380A2801D201202B
:104B3000704700207047000010B500290AD008789F
:104B4000002807D005487844FEF74AFF002801D026
:104B5000002010BD0248784410BD0000EA1A000091
:104B6000E21A000010B500290AD00878002807D002
:104B700005487844FEF734FF002801D0002010BD1E
:104B80000248784410BD0000DA1A0000D21A000072
:104B900021F00042A2F16052B2F5801F01F0004303
:104BA00028BFD2F17F6C0BD95FEA001C43EAC20236
:104BB00042EB507018BF704728BF20F001007047CB
:104BC000B2F5801FBCBF184670474FEA410C1CF578
:104BD000001F02D2084600F0E1BB70B500F0E0F91A
:104BE00000000089FFF7F6BF4FF00040A0F58000FD
:104BF0007047000010B591EA030F48BF83F00043EF
:104C000000F16082841A71EB030C05D2121943EB98
:104C10000C03001B61EB0C01DFF824E14FEA115497
:104C2000A4EB135C1EEA430F18BF9EEA445F73D0E7
:104C300023EA0E03DCF1200E21EA045143F4801331
:104C400032D322FA0CFE10EB0E0023FA0CFE41EBDD
:104C50000E01CCF1200E03FA0EFE10EB0E0051F106
:104C60000001B1F5801FCCF1200E32D201EB0451CE
:104C700012FA0EF2BDE8104058BF7047401C38BF12
:104C80005FEA420218BF7047002814BF20F00100FD
:104C900041F100014FEA410313F5001F38BF70478F
:104CA000A1F1C04100F0CAB9012A43EB0302ACF103
:104CB000200CDCF11F0E32BF4FF0000E23FA0CF374
:104CC00010EB030041EB0451B4EB115FD0D0A1EB2A
:104CD000045101F5801149085FEA300001EB0451ED
:104CE0000ED350F1000038BF12FA0EFE08D1BDE815
:104CF0001040C9E7401C38BF5FEA4202CAD1C3E78F
:104D0000BDE810404FEA410313F5001F38BF70475C
:104D1000A1F1C04100F092B99EEA445F08D011EAC7
:104D20005E0FBDE8104004BF01F000410020704755
:104D3000BDE8104070B500F033F900BF64FBBE3E23
:104D40000000E0FF491058BFC1F140415B1058BF5F
:104D5000C3F140438B42EFF30080704751EA030CEC
:104D600017D41CF5801F58BFBCF5801F00F10680CA
:104D7000994218BF704708BF9042704707D711F596
:104D8000801F58BF13F5801F19D49942704789427C
:104D900070471CF5801F08D5BCF5801FF7D58B42E6
:104DA00018BF704708BF824270474FF4001C1CEBCD
:104DB000410F38BF1CEB430F01D28B42704770B5D7
:104DC00000F0EEF8922449004FF000514FF080536C
:104DD000FFF7B8BF51EA030C17D41CF5801F58BF6A
:104DE000BCF5801F00F10680994218BF704708BFCC
:104DF0009042704707D711F5801F58BF13F5801FE9
:104E000019D499427047894270471CF5801F08D514
:104E1000BCF5801FF7D58B4218BF704708BF824290
:104E200070474FF4001C1CEB410F38BF1CEB430FC5
:104E300001D28B42704770B500F0B2F8922449005D
:104E40004FF000514FF08053FFF77CBFDFF848C1AF
:104E500070B51CEA111E1EBF1CEA13159EEA0C0F4A
:104E600095EA0C0F00F06F8081EA030423EA4C13EB
:104E70004EEAD47E21EA4C1141F4801143F48013B0
:104E8000AE44A1FB024CA0FB0365AEF17F7E361958
:104E900055EB0C05A1FB034C4CF10003A0FB021CDD
:104EA00016EB0C06654153F10003094218BF46F0AA
:104EB000010613F4007F0BD14FEA03314FEA0530AE
:104EC000340341EA155140EA16506FF003020AE03C
:104ED0004FEAC3214FEAC520F40241EA555140EAA6
:104EE00056506FF0020202EB2E4201EB025585EAAA
:104EF000CE710AD05FEA440C18BF24F0004450F190
:104F0000000041F1000120EAD47040F2FE7C6245CD
:104F100000D270BDA84214BF4FF080444FF040440F
:104F2000002E08BF0024BEF1806FA8BFA1F1C041D0
:104F3000BDE8704080F282804FF0000001F1C04176
:104F400001F0004170479EEA0C0F0CEA131518BFE0
:104F500095EA0C0F06D04FF0000081EA030E0EF028
:104F6000004170BD00F01CF88900013E00F007B858
:104F700000F009B84FEA430C5FEA5C5C08D081EAB4
:104F8000030100F05BB84FEA410C5FEA5C5CF6D1CC
:104F90004FF00000014970470000FF070000F87F54
:104FA0000EF1020E2EF0030E5EF8046B364205D4AD
:104FB000012A43EB030515F5001F12D8012841EB28
:104FC000010C1CF5001F0CD80ED14FEAD17C15F551
:104FD000001F0CEB4C0C0CF1020C08BF4CEBD37C0B
:104FE00004E04FF0080C01E04FEAD37C0CEB4C05D9
:104FF00026FA05F606F00706B6F1040C06D20EEB0B
:10500000860CBDE870404CF0010C6047DFE80CF006
:10501000090B02024FF000414FF00000A1F5002102
:1050200070BD19461046012851EB010418BFD4F594
:10503000001484BF002001F0004170BD0808A0F5F5
:1050400000114FEA3101704753EA010C17D41CF5E7
:10505000801F58BFBCF5801F00F106808B4218BF2F
:10506000704708BF8242704707D713F5801F58BFAB
:1050700011F5801F19D48B4270479B4270471CF575
:10508000801F08D5BCF5801FF7D5994218BF70471F
:1050900008BF904270474FF4001C1CEB430F38BF11
:1050A0001CEB410F01D2994270470FB40CBC03BCFA
:1050B000FFF7C1BE10B591EA030F48BF83F000436C
:1050C0003FF5A0AD841A71EB030C07D212198CF0D6
:1050D000004C43EB0C03001B61EB0C01DFF8A4E177
:1050E0004FEA1154A4EB135C1EEA430F18BF9EEA6B
:1050F000445F00F0B08023EA6E03524221EA04517B
:10510000C3EB6E0338BF5B1EDCF1200E25D322FA01
:105110000CFE10EB0E0043FA0CFE41EB0E01CCF13D
:10512000200E03FA0EFE10EB0E0051F10001CCF13F
:10513000200E29D412FA0EF201EB0451BDE8104002
:1051400058BF7047401C1CBFB2F1004F7047002889
:105150000CBF491C20F00100704712EB020E43EB1C
:10516000030218BF4FF0010E4EEA4202ACF1200CD0
:10517000DCF11E0E54D943FA0CFE10EB0E0051F177
:10518000FF31CCF11E0ED5D50EF1010E12FA0EFE36
:10519000404141EB010101EB445C5FEA5C5C10D9EA
:1051A00010EBDE7001EB045138BFBEF1004FBDE8DB
:1051B000104018BF704700280CBF491C20F00100A8
:1051C000704730D24FEAD42C11F5001124F400645A
:1051D0001BD0B1FA81F20B3AA41AA41ED2F120031B
:1051E000914030FA03F31943904001EBCC71002C4D
:1051F00001EB0451BDE81040A8BF704701F1C04168
:105200004FF0000001F000417047B0FA80F310FA4F
:1052100003F100D110BDE41A173C4805C90AE4E7C0
:1052200001EB045110BD491001EB0451BDE81040E1
:105230004FEA300002E04FF0000170474A0008BF1B
:105240000042F8D0B2F5001F28BF704701F00041BE
:105250004FF0000070479EEA445F07D011EA5E0FEE
:10526000BDE8104004BF002100207047BDE8104099
:1052700070B5FFF795FE00BF40DFF63E83F00041BA
:10528000104670470000E0FF43004FEAD30C4FEA9E
:105290003C0C43401FBF40070CF1605113F0FE4F20
:1052A00070471CF0006F03D100200CF000417047E4
:1052B0000CF0004343EA507010B540EACC0000F017
:1052C00027F800BF000000924FEA0001FFF7B6BECA
:1052D0004FF000414FF00000A1F5002170470000A1
:1052E00010F0004148BF4042B0FA80F310FA03F2D8
:1052F000C3F19D030BD051EAC35101EB12205306B9
:1053000038BF704700F1010008BF20F0010070476E
:105310000EF1020E2EF0030E5EF8044B244204D46C
:105320004FEA4102B2F17F4F11D84FEA4003B3F187
:105330007F4F0CD80ED14FEAD07CB2F17F4F0CEBEF
:105340004C0C0CF1020C08BF4CEBD17C04E04FF08C
:10535000080C01E04FEAD17C0CEB4C0324FA03F477
:1053600004F00704B4F1040C06D20EEB840CBDE883
:1053700010404CF0010C6047DFE80CF00708020217
:105380004FF00040A0F5800010BD0846420018BF55
:10539000D2F1807288BF00F0004010BDFF2141EAC9
:1053A000D050C0057047FEF793BC0000000000001D
:1053B00000000000000000000000000000000000ED
:1053C00000000000000000000000000000000000DD
:1053D00000000000000000000000000080018001CB
:1053E00080018001800180018001800180018001B5
:1053F0008001800180010000000080018001000028
:105400000000000000000000000000000000CC00D0
:10541000CC00CC00CC00CC00CC0000000000000090
:10542000000000000000000000000000000000007C
:10543000000000000000000000000000000000006C
:10544000000000000000600C600C600C30063006AC
:10545000FE1FFE1F300638071803FE1FFE1F18032D
:1054600018038C018C018C01000000008000E00317
:10547000F80F9C0E8C1C8C188C009800F801E0072B
:10548000800E801C8C188C189C18B80CF00FE00350
:10549000800080000000000000000000000000000C
:1054A0000E181B0C110C11061106110311039B01A0
:1054B0008E01C038C06C60446044304430441844AD
:1054C000186C0C380000000000000000E001F00340
:1054D0003807180618063003F001F000F8009C3178
:1054E0000E33061E061C061C063FFC73F02100004E
:1054F00000000000000000000000000000000C00A0
:105500000C000C000C000C000C000000000000005F
:10551000000000000000000000000000000000008B
:105520000000000000000000000000000002000376
:105530008001C000C000600060003000300030001A
:105540003000300030003000300060006000C000EB
:10555000C000800100030002000000002000600085
:10556000C000800180010003000300060006000661
:105570000006000600060006000600030003800186
:105580008001C0006000200000000000000000005A
:10559000000000000000C000C000D806F807E001CD
:1055A0003003380700000000000000000000000089
:1055B00000000000000000000000000000000000EB
:1055C0000000000000008001800180018001800156
:1055D000FC3FFC3F800180018001800180010000D0
:1055E00000000000000000000000000000000000BB
:1055F00000000000000000000000000000000000AB
:105600000000000000000000000000008001800198
:105610000001000180000000000000000000000008
:10562000000000000000000000000000000000007A
:105630000000E007E007000000000000000000009C
:10564000000000000000000000000000000000005A
:10565000000000000000000000000000000000004A
:10566000000000000000000000000000C000C000BA
:10567000000000000000000000000000000C000C12
:1056800000060006000600030003000380038001FB
:1056900080018001C000C000C00060006000000008
:1056A000000000000000000000000000E003F00720
:1056B000380E180C0C180C180C180C180C180C18A8
:1056C0000C180C180C18180C380EF007E00300002A
:1056D0000000000000000000000000000001800148
:1056E000C001F001980188018001800180018001E2
:1056F0008001800180018001800180018001000023
:10570000000000000000000000000000E003F80FAF
:10571000180C0C180C1800180018000C00060003D8
:105720008001C000600030001800FC1FFC1F00005A
:10573000000000000000000000000000E001F80789
:10574000180E0C0C0C0C000C0006C003C007000C5B
:10575000001800180C180C18180CF807E0030000CB
:10576000000000000000000000000000000C000E1F
:10577000000F000F800DC00C600C600C300C180C7A
:105780000C0CFC3FFC3F000C000C000C000C00005B
:10579000000000000000000000000000F80FF80FFB
:1057A000180018000C00EC03FC071C0E001C00186D
:1057B000001800180C181C0C180EF807E003000065
:1057C000000000000000000000000000C007F00F13
:1057D000381C181818000C00CC03EC0F3C0E1C1CD5
:1057E0000C180C180C18181C380EF007E0030000F9
:1057F000000000000000000000000000FC1FFC1F73
:10580000000C00060006000380038001C001C000F8
:10581000E0006000600070003000300030000000E8
:10582000000000000000000000000000E003F0079E
:10583000380E180C180C180C3806F007F007180C66
:105840000C180C180C180C18380CF80FE00300009A
:10585000000000000000000000000000E003F0076E
:10586000380E1C0C0C180C180C181C1C381EF81BBD
:10587000E0190018000C000C1C0EF807F0010000E5
:105880000000000000000000000000000000000018
:105890000000000000008001800100000000000006
:1058A00000000000000000000000800180010000F6
:1058B00000000000000000000000000000000000E8
:1058C00000000000000080018001000000000000D6
:1058D00000000000000000000000800180010001C5
:1058E0000001800000000000000000000000000037
:1058F000000000000000000000000010001C800FED
:10590000E003F8001800F800E003800F001C00100E
:105910000000000000000000000000000000000087
:1059200000000000000000000000F81F0000000060
:105930000000F81F00000000000000000000000050
:105940000000000000000000000000000000000057
:105950000000000000000000000008003800F00116
:10596000C007001F0018001FC007F0013800080022
:10597000000000000000000000000000E003F80F3D
:10598000180C0C180C180018000C000600038001FD
:10599000C000C000C00000000000C000C000000047
:1059A0000000000000000000000000000000E00710
:1059B00018180420C229224A114409440944094400
:1059C00009221113E20C024004201818E00700001D
:1059D00000000000000000000000000080038003C1
:1059E000C006C006C006600C600C301830183018B5
:1059F000F83FF83F1C700C600C6006C006C0000049
:105A0000000000000000000000000000FC03FC0F8C
:105A10000C0C0C180C180C180C0CFC07FC0F0C18B8
:105A20000C300C300C300C300C18FC1FFC07000044
:105A3000000000000000000000000000C007F01F90
:105A400038381C300C7006600600060006000600A0
:105A50000600060006600C701C30F01FE007000016
:105A6000000000000000000000000000FE03FE0F28
:105A7000060E0618061806300630063006300630C8
:105A80000630063006180618060EFE0FFE0300004C
:105A9000000000000000000000000000FC3FFC3F90
:105AA0000C000C000C000C000C00FC1FFC1F0C0078
:105AB0000C000C000C000C000C00FC3FFC3F000034
:105AC000000000000000000000000000F83FF83F68
:105AD00018001800180018001800F81FF81F180008
